{
	"todo.sol": {
		"ToDo": {
			"abi": [
				{
					"inputs": [
						{
							"internalType": "string",
							"name": "_task",
							"type": "string"
						}
					],
					"name": "addTask",
					"outputs": [],
					"stateMutability": "nonpayable",
					"type": "function"
				},
				{
					"inputs": [
						{
							"internalType": "uint256",
							"name": "_taskIndex",
							"type": "uint256"
						}
					],
					"name": "deleteTask",
					"outputs": [],
					"stateMutability": "nonpayable",
					"type": "function"
				},
				{
					"inputs": [
						{
							"internalType": "uint256",
							"name": "_taskIndex",
							"type": "uint256"
						}
					],
					"name": "getTask",
					"outputs": [
						{
							"components": [
								{
									"internalType": "string",
									"name": "task",
									"type": "string"
								},
								{
									"internalType": "bool",
									"name": "done",
									"type": "bool"
								}
							],
							"internalType": "struct ToDo.Task",
							"name": "",
							"type": "tuple"
						}
					],
					"stateMutability": "view",
					"type": "function"
				},
				{
					"inputs": [],
					"name": "getTaskCount",
					"outputs": [
						{
							"internalType": "uint256",
							"name": "",
							"type": "uint256"
						}
					],
					"stateMutability": "view",
					"type": "function"
				},
				{
					"inputs": [
						{
							"internalType": "uint256",
							"name": "_taskIndex",
							"type": "uint256"
						},
						{
							"internalType": "bool",
							"name": "_status",
							"type": "bool"
						}
					],
					"name": "updateStatus",
					"outputs": [],
					"stateMutability": "nonpayable",
					"type": "function"
				}
			],
			"devdoc": {
				"kind": "dev",
				"methods": {},
				"version": 1
			},
			"evm": {
				"assembly": "    /* \"todo.sol\":73:1100  contract ToDo{... */\n  mstore(0x40, 0x80)\n  callvalue\n  dup1\n  iszero\n  tag_1\n  jumpi\n  0x00\n  dup1\n  revert\ntag_1:\n  pop\n  dataSize(sub_0)\n  dup1\n  dataOffset(sub_0)\n  0x00\n  codecopy\n  0x00\n  return\nstop\n\nsub_0: assembly {\n        /* \"todo.sol\":73:1100  contract ToDo{... */\n      mstore(0x40, 0x80)\n      callvalue\n      dup1\n      iszero\n      tag_1\n      jumpi\n      0x00\n      dup1\n      revert\n    tag_1:\n      pop\n      jumpi(tag_2, lt(calldatasize, 0x04))\n      shr(0xe0, calldataload(0x00))\n      dup1\n      0x1d65e77e\n      eq\n      tag_3\n      jumpi\n      dup1\n      0x387008c2\n      eq\n      tag_4\n      jumpi\n      dup1\n      0x560f3192\n      eq\n      tag_5\n      jumpi\n      dup1\n      0x67238562\n      eq\n      tag_6\n      jumpi\n      dup1\n      0xc17a340e\n      eq\n      tag_7\n      jumpi\n    tag_2:\n      0x00\n      dup1\n      revert\n        /* \"todo.sol\":463:624  function getTask (uint _taskIndex) external view returns (Task memory){ ... */\n    tag_3:\n      tag_8\n      0x04\n      dup1\n      calldatasize\n      sub\n      dup2\n      add\n      swap1\n      tag_9\n      swap2\n      swap1\n      tag_10\n      jump\t// in\n    tag_9:\n      tag_11\n      jump\t// in\n    tag_8:\n      mload(0x40)\n      tag_12\n      swap2\n      swap1\n      tag_13\n      jump\t// in\n    tag_12:\n      mload(0x40)\n      dup1\n      swap2\n      sub\n      swap1\n      return\n        /* \"todo.sol\":690:820  function updateStatus (uint256 _taskIndex, bool _status) external { ... */\n    tag_4:\n      tag_14\n      0x04\n      dup1\n      calldatasize\n      sub\n      dup2\n      add\n      swap1\n      tag_15\n      swap2\n      swap1\n      tag_16\n      jump\t// in\n    tag_15:\n      tag_17\n      jump\t// in\n    tag_14:\n      stop\n        /* \"todo.sol\":881:983  function deleteTask(uint256 _taskIndex) external{ ... */\n    tag_5:\n      tag_18\n      0x04\n      dup1\n      calldatasize\n      sub\n      dup2\n      add\n      swap1\n      tag_19\n      swap2\n      swap1\n      tag_10\n      jump\t// in\n    tag_19:\n      tag_20\n      jump\t// in\n    tag_18:\n      stop\n        /* \"todo.sol\":242:405  function addTask (string calldata _task) external { ... */\n    tag_6:\n      tag_21\n      0x04\n      dup1\n      calldatasize\n      sub\n      dup2\n      add\n      swap1\n      tag_22\n      swap2\n      swap1\n      tag_23\n      jump\t// in\n    tag_22:\n      tag_24\n      jump\t// in\n    tag_21:\n      stop\n        /* \"todo.sol\":990:1095  function getTaskCount() external  view returns (uint256){... */\n    tag_7:\n      tag_25\n      tag_26\n      jump\t// in\n    tag_25:\n      mload(0x40)\n      tag_27\n      swap2\n      swap1\n      tag_28\n      jump\t// in\n    tag_27:\n      mload(0x40)\n      dup1\n      swap2\n      sub\n      swap1\n      return\n        /* \"todo.sol\":463:624  function getTask (uint _taskIndex) external view returns (Task memory){ ... */\n    tag_11:\n        /* \"todo.sol\":521:532  Task memory */\n      tag_29\n      tag_30\n      jump\t// in\n    tag_29:\n        /* \"todo.sol\":545:562  Task storage task */\n      0x00\n        /* \"todo.sol\":565:570  Users */\n      dup1\n        /* \"todo.sol\":565:582  Users[msg.sender] */\n      0x00\n        /* \"todo.sol\":571:581  msg.sender */\n      caller\n        /* \"todo.sol\":565:582  Users[msg.sender] */\n      0xffffffffffffffffffffffffffffffffffffffff\n      and\n      0xffffffffffffffffffffffffffffffffffffffff\n      and\n      dup2\n      mstore\n      0x20\n      add\n      swap1\n      dup2\n      mstore\n      0x20\n      add\n      0x00\n      keccak256\n        /* \"todo.sol\":583:593  _taskIndex */\n      dup4\n        /* \"todo.sol\":565:594  Users[msg.sender][_taskIndex] */\n      dup2\n      sload\n      dup2\n      lt\n      tag_32\n      jumpi\n      tag_33\n      tag_34\n      jump\t// in\n    tag_33:\n    tag_32:\n      swap1\n      0x00\n      mstore\n      keccak256(0x00, 0x20)\n      swap1\n      0x02\n      mul\n      add\n        /* \"todo.sol\":545:594  Task storage task = Users[msg.sender][_taskIndex] */\n      swap1\n      pop\n        /* \"todo.sol\":612:616  task */\n      dup1\n        /* \"todo.sol\":605:616  return task */\n      mload(0x40)\n      dup1\n      0x40\n      add\n      0x40\n      mstore\n      swap1\n      dup2\n      0x00\n      dup3\n      add\n      dup1\n      sload\n      tag_36\n      swap1\n      tag_37\n      jump\t// in\n    tag_36:\n      dup1\n      0x1f\n      add\n      0x20\n      dup1\n      swap2\n      div\n      mul\n      0x20\n      add\n      mload(0x40)\n      swap1\n      dup2\n      add\n      0x40\n      mstore\n      dup1\n      swap3\n      swap2\n      swap1\n      dup2\n      dup2\n      mstore\n      0x20\n      add\n      dup3\n      dup1\n      sload\n      tag_38\n      swap1\n      tag_37\n      jump\t// in\n    tag_38:\n      dup1\n      iszero\n      tag_39\n      jumpi\n      dup1\n      0x1f\n      lt\n      tag_40\n      jumpi\n      0x0100\n      dup1\n      dup4\n      sload\n      div\n      mul\n      dup4\n      mstore\n      swap2\n      0x20\n      add\n      swap2\n      jump(tag_39)\n    tag_40:\n      dup3\n      add\n      swap2\n      swap1\n      0x00\n      mstore\n      keccak256(0x00, 0x20)\n      swap1\n    tag_41:\n      dup2\n      sload\n      dup2\n      mstore\n      swap1\n      0x01\n      add\n      swap1\n      0x20\n      add\n      dup1\n      dup4\n      gt\n      tag_41\n      jumpi\n      dup3\n      swap1\n      sub\n      0x1f\n      and\n      dup3\n      add\n      swap2\n    tag_39:\n      pop\n      pop\n      pop\n      pop\n      pop\n      dup2\n      mstore\n      0x20\n      add\n      0x01\n      dup3\n      add\n      0x00\n      swap1\n      sload\n      swap1\n      0x0100\n      exp\n      swap1\n      div\n      0xff\n      and\n      iszero\n      iszero\n      iszero\n      iszero\n      dup2\n      mstore\n      pop\n      pop\n      swap2\n      pop\n      pop\n        /* \"todo.sol\":463:624  function getTask (uint _taskIndex) external view returns (Task memory){ ... */\n      swap2\n      swap1\n      pop\n      jump\t// out\n        /* \"todo.sol\":690:820  function updateStatus (uint256 _taskIndex, bool _status) external { ... */\n    tag_17:\n        /* \"todo.sol\":805:812  _status */\n      dup1\n        /* \"todo.sol\":768:773  Users */\n      0x00\n        /* \"todo.sol\":768:785  Users[msg.sender] */\n      dup1\n        /* \"todo.sol\":774:784  msg.sender */\n      caller\n        /* \"todo.sol\":768:785  Users[msg.sender] */\n      0xffffffffffffffffffffffffffffffffffffffff\n      and\n      0xffffffffffffffffffffffffffffffffffffffff\n      and\n      dup2\n      mstore\n      0x20\n      add\n      swap1\n      dup2\n      mstore\n      0x20\n      add\n      0x00\n      keccak256\n        /* \"todo.sol\":786:796  _taskIndex */\n      dup4\n        /* \"todo.sol\":768:797  Users[msg.sender][_taskIndex] */\n      dup2\n      sload\n      dup2\n      lt\n      tag_43\n      jumpi\n      tag_44\n      tag_34\n      jump\t// in\n    tag_44:\n    tag_43:\n      swap1\n      0x00\n      mstore\n      keccak256(0x00, 0x20)\n      swap1\n      0x02\n      mul\n      add\n        /* \"todo.sol\":768:802  Users[msg.sender][_taskIndex].done */\n      0x01\n      add\n      0x00\n        /* \"todo.sol\":768:812  Users[msg.sender][_taskIndex].done = _status */\n      0x0100\n      exp\n      dup2\n      sload\n      dup2\n      0xff\n      mul\n      not\n      and\n      swap1\n      dup4\n      iszero\n      iszero\n      mul\n      or\n      swap1\n      sstore\n      pop\n        /* \"todo.sol\":690:820  function updateStatus (uint256 _taskIndex, bool _status) external { ... */\n      pop\n      pop\n      jump\t// out\n        /* \"todo.sol\":881:983  function deleteTask(uint256 _taskIndex) external{ ... */\n    tag_20:\n        /* \"todo.sol\":947:952  Users */\n      0x00\n        /* \"todo.sol\":947:964  Users[msg.sender] */\n      dup1\n        /* \"todo.sol\":953:963  msg.sender */\n      caller\n        /* \"todo.sol\":947:964  Users[msg.sender] */\n      0xffffffffffffffffffffffffffffffffffffffff\n      and\n      0xffffffffffffffffffffffffffffffffffffffff\n      and\n      dup2\n      mstore\n      0x20\n      add\n      swap1\n      dup2\n      mstore\n      0x20\n      add\n      0x00\n      keccak256\n        /* \"todo.sol\":965:975  _taskIndex */\n      dup2\n        /* \"todo.sol\":947:976  Users[msg.sender][_taskIndex] */\n      dup2\n      sload\n      dup2\n      lt\n      tag_47\n      jumpi\n      tag_48\n      tag_34\n      jump\t// in\n    tag_48:\n    tag_47:\n      swap1\n      0x00\n      mstore\n      keccak256(0x00, 0x20)\n      swap1\n      0x02\n      mul\n      add\n      0x00\n        /* \"todo.sol\":940:976  delete Users[msg.sender][_taskIndex] */\n      dup1\n      dup3\n      add\n      0x00\n      tag_50\n      swap2\n      swap1\n      tag_51\n      jump\t// in\n    tag_50:\n      0x01\n      dup3\n      add\n      exp(0x0100, 0x00)\n      dup2\n      sload\n      swap1\n      0xff\n      mul\n      not\n      and\n      swap1\n      sstore\n      pop\n      pop\n        /* \"todo.sol\":881:983  function deleteTask(uint256 _taskIndex) external{ ... */\n      pop\n      jump\t// out\n        /* \"todo.sol\":242:405  function addTask (string calldata _task) external { ... */\n    tag_24:\n        /* \"todo.sol\":304:309  Users */\n      0x00\n        /* \"todo.sol\":304:321  Users[msg.sender] */\n      dup1\n        /* \"todo.sol\":310:320  msg.sender */\n      caller\n        /* \"todo.sol\":304:321  Users[msg.sender] */\n      0xffffffffffffffffffffffffffffffffffffffff\n      and\n      0xffffffffffffffffffffffffffffffffffffffff\n      and\n      dup2\n      mstore\n      0x20\n      add\n      swap1\n      dup2\n      mstore\n      0x20\n      add\n      0x00\n      keccak256\n        /* \"todo.sol\":327:396  Task({... */\n      mload(0x40)\n      dup1\n      0x40\n      add\n      0x40\n      mstore\n      dup1\n        /* \"todo.sol\":353:358  _task */\n      dup5\n      dup5\n        /* \"todo.sol\":327:396  Task({... */\n      dup1\n      dup1\n      0x1f\n      add\n      0x20\n      dup1\n      swap2\n      div\n      mul\n      0x20\n      add\n      mload(0x40)\n      swap1\n      dup2\n      add\n      0x40\n      mstore\n      dup1\n      swap4\n      swap3\n      swap2\n      swap1\n      dup2\n      dup2\n      mstore\n      0x20\n      add\n      dup4\n      dup4\n      dup1\n      dup3\n      dup5\n      calldatacopy\n      0x00\n      dup2\n      dup5\n      add\n      mstore\n      not(0x1f)\n      0x1f\n      dup3\n      add\n      and\n      swap1\n      pop\n      dup1\n      dup4\n      add\n      swap3\n      pop\n      pop\n      pop\n      pop\n      pop\n      pop\n      pop\n      dup2\n      mstore\n      0x20\n      add\n        /* \"todo.sol\":379:384  false */\n      0x00\n        /* \"todo.sol\":327:396  Task({... */\n      iszero\n      iszero\n      dup2\n      mstore\n      pop\n        /* \"todo.sol\":304:397  Users[msg.sender].push(Task({... */\n      swap1\n      dup1\n      0x01\n      dup2\n      sload\n      add\n      dup1\n      dup3\n      sstore\n      dup1\n      swap2\n      pop\n      pop\n      0x01\n      swap1\n      sub\n      swap1\n      0x00\n      mstore\n      keccak256(0x00, 0x20)\n      swap1\n      0x02\n      mul\n      add\n      0x00\n      swap1\n      swap2\n      swap1\n      swap2\n      swap1\n      swap2\n      pop\n      0x00\n      dup3\n      add\n      mload\n      dup2\n      0x00\n      add\n      swap1\n      dup2\n      tag_54\n      swap2\n      swap1\n      tag_55\n      jump\t// in\n    tag_54:\n      pop\n      0x20\n      dup3\n      add\n      mload\n      dup2\n      0x01\n      add\n      exp(0x0100, 0x00)\n      dup2\n      sload\n      dup2\n      0xff\n      mul\n      not\n      and\n      swap1\n      dup4\n      iszero\n      iszero\n      mul\n      or\n      swap1\n      sstore\n      pop\n      pop\n      pop\n        /* \"todo.sol\":242:405  function addTask (string calldata _task) external { ... */\n      pop\n      pop\n      jump\t// out\n        /* \"todo.sol\":990:1095  function getTaskCount() external  view returns (uint256){... */\n    tag_26:\n        /* \"todo.sol\":1038:1045  uint256 */\n      0x00\n        /* \"todo.sol\":1064:1069  Users */\n      dup1\n        /* \"todo.sol\":1064:1081  Users[msg.sender] */\n      0x00\n        /* \"todo.sol\":1070:1080  msg.sender */\n      caller\n        /* \"todo.sol\":1064:1081  Users[msg.sender] */\n      0xffffffffffffffffffffffffffffffffffffffff\n      and\n      0xffffffffffffffffffffffffffffffffffffffff\n      and\n      dup2\n      mstore\n      0x20\n      add\n      swap1\n      dup2\n      mstore\n      0x20\n      add\n      0x00\n      keccak256\n        /* \"todo.sol\":1064:1088  Users[msg.sender].length */\n      dup1\n      sload\n      swap1\n      pop\n        /* \"todo.sol\":1057:1088  return Users[msg.sender].length */\n      swap1\n      pop\n        /* \"todo.sol\":990:1095  function getTaskCount() external  view returns (uint256){... */\n      swap1\n      jump\t// out\n    tag_30:\n      mload(0x40)\n      dup1\n      0x40\n      add\n      0x40\n      mstore\n      dup1\n      0x60\n      dup2\n      mstore\n      0x20\n      add\n      iszero(iszero(0x00))\n      dup2\n      mstore\n      pop\n      swap1\n      jump\t// out\n    tag_51:\n      pop\n      dup1\n      sload\n      tag_57\n      swap1\n      tag_37\n      jump\t// in\n    tag_57:\n      0x00\n      dup3\n      sstore\n      dup1\n      0x1f\n      lt\n      tag_59\n      jumpi\n      pop\n      jump(tag_58)\n    tag_59:\n      0x1f\n      add\n      0x20\n      swap1\n      div\n      swap1\n      0x00\n      mstore\n      keccak256(0x00, 0x20)\n      swap1\n      dup2\n      add\n      swap1\n      tag_60\n      swap2\n      swap1\n      tag_61\n      jump\t// in\n    tag_60:\n    tag_58:\n      pop\n      jump\t// out\n    tag_61:\n    tag_62:\n      dup1\n      dup3\n      gt\n      iszero\n      tag_63\n      jumpi\n      0x00\n      dup2\n      0x00\n      swap1\n      sstore\n      pop\n      0x01\n      add\n      jump(tag_62)\n    tag_63:\n      pop\n      swap1\n      jump\t// out\n        /* \"#utility.yul\":88:205   */\n    tag_65:\n        /* \"#utility.yul\":197:198   */\n      0x00\n        /* \"#utility.yul\":194:195   */\n      dup1\n        /* \"#utility.yul\":187:199   */\n      revert\n        /* \"#utility.yul\":211:328   */\n    tag_66:\n        /* \"#utility.yul\":320:321   */\n      0x00\n        /* \"#utility.yul\":317:318   */\n      dup1\n        /* \"#utility.yul\":310:322   */\n      revert\n        /* \"#utility.yul\":334:411   */\n    tag_67:\n        /* \"#utility.yul\":371:378   */\n      0x00\n        /* \"#utility.yul\":400:405   */\n      dup2\n        /* \"#utility.yul\":389:405   */\n      swap1\n      pop\n        /* \"#utility.yul\":334:411   */\n      swap2\n      swap1\n      pop\n      jump\t// out\n        /* \"#utility.yul\":417:539   */\n    tag_68:\n        /* \"#utility.yul\":490:514   */\n      tag_108\n        /* \"#utility.yul\":508:513   */\n      dup2\n        /* \"#utility.yul\":490:514   */\n      tag_67\n      jump\t// in\n    tag_108:\n        /* \"#utility.yul\":483:488   */\n      dup2\n        /* \"#utility.yul\":480:515   */\n      eq\n        /* \"#utility.yul\":470:533   */\n      tag_109\n      jumpi\n        /* \"#utility.yul\":529:530   */\n      0x00\n        /* \"#utility.yul\":526:527   */\n      dup1\n        /* \"#utility.yul\":519:531   */\n      revert\n        /* \"#utility.yul\":470:533   */\n    tag_109:\n        /* \"#utility.yul\":417:539   */\n      pop\n      jump\t// out\n        /* \"#utility.yul\":545:684   */\n    tag_69:\n        /* \"#utility.yul\":591:596   */\n      0x00\n        /* \"#utility.yul\":629:635   */\n      dup2\n        /* \"#utility.yul\":616:636   */\n      calldataload\n        /* \"#utility.yul\":607:636   */\n      swap1\n      pop\n        /* \"#utility.yul\":645:678   */\n      tag_111\n        /* \"#utility.yul\":672:677   */\n      dup2\n        /* \"#utility.yul\":645:678   */\n      tag_68\n      jump\t// in\n    tag_111:\n        /* \"#utility.yul\":545:684   */\n      swap3\n      swap2\n      pop\n      pop\n      jump\t// out\n        /* \"#utility.yul\":690:1019   */\n    tag_10:\n        /* \"#utility.yul\":749:755   */\n      0x00\n        /* \"#utility.yul\":798:800   */\n      0x20\n        /* \"#utility.yul\":786:795   */\n      dup3\n        /* \"#utility.yul\":777:784   */\n      dup5\n        /* \"#utility.yul\":773:796   */\n      sub\n        /* \"#utility.yul\":769:801   */\n      slt\n        /* \"#utility.yul\":766:885   */\n      iszero\n      tag_113\n      jumpi\n        /* \"#utility.yul\":804:883   */\n      tag_114\n      tag_65\n      jump\t// in\n    tag_114:\n        /* \"#utility.yul\":766:885   */\n    tag_113:\n        /* \"#utility.yul\":924:925   */\n      0x00\n        /* \"#utility.yul\":949:1002   */\n      tag_115\n        /* \"#utility.yul\":994:1001   */\n      dup5\n        /* \"#utility.yul\":985:991   */\n      dup3\n        /* \"#utility.yul\":974:983   */\n      dup6\n        /* \"#utility.yul\":970:992   */\n      add\n        /* \"#utility.yul\":949:1002   */\n      tag_69\n      jump\t// in\n    tag_115:\n        /* \"#utility.yul\":939:1002   */\n      swap2\n      pop\n        /* \"#utility.yul\":895:1012   */\n      pop\n        /* \"#utility.yul\":690:1019   */\n      swap3\n      swap2\n      pop\n      pop\n      jump\t// out\n        /* \"#utility.yul\":1025:1124   */\n    tag_70:\n        /* \"#utility.yul\":1077:1083   */\n      0x00\n        /* \"#utility.yul\":1111:1116   */\n      dup2\n        /* \"#utility.yul\":1105:1117   */\n      mload\n        /* \"#utility.yul\":1095:1117   */\n      swap1\n      pop\n        /* \"#utility.yul\":1025:1124   */\n      swap2\n      swap1\n      pop\n      jump\t// out\n        /* \"#utility.yul\":1130:1289   */\n    tag_71:\n        /* \"#utility.yul\":1204:1215   */\n      0x00\n        /* \"#utility.yul\":1238:1244   */\n      dup3\n        /* \"#utility.yul\":1233:1236   */\n      dup3\n        /* \"#utility.yul\":1226:1245   */\n      mstore\n        /* \"#utility.yul\":1278:1282   */\n      0x20\n        /* \"#utility.yul\":1273:1276   */\n      dup3\n        /* \"#utility.yul\":1269:1283   */\n      add\n        /* \"#utility.yul\":1254:1283   */\n      swap1\n      pop\n        /* \"#utility.yul\":1130:1289   */\n      swap3\n      swap2\n      pop\n      pop\n      jump\t// out\n        /* \"#utility.yul\":1295:1541   */\n    tag_72:\n        /* \"#utility.yul\":1376:1377   */\n      0x00\n        /* \"#utility.yul\":1386:1499   */\n    tag_119:\n        /* \"#utility.yul\":1400:1406   */\n      dup4\n        /* \"#utility.yul\":1397:1398   */\n      dup2\n        /* \"#utility.yul\":1394:1407   */\n      lt\n        /* \"#utility.yul\":1386:1499   */\n      iszero\n      tag_121\n      jumpi\n        /* \"#utility.yul\":1485:1486   */\n      dup1\n        /* \"#utility.yul\":1480:1483   */\n      dup3\n        /* \"#utility.yul\":1476:1487   */\n      add\n        /* \"#utility.yul\":1470:1488   */\n      mload\n        /* \"#utility.yul\":1466:1467   */\n      dup2\n        /* \"#utility.yul\":1461:1464   */\n      dup5\n        /* \"#utility.yul\":1457:1468   */\n      add\n        /* \"#utility.yul\":1450:1489   */\n      mstore\n        /* \"#utility.yul\":1422:1424   */\n      0x20\n        /* \"#utility.yul\":1419:1420   */\n      dup2\n        /* \"#utility.yul\":1415:1425   */\n      add\n        /* \"#utility.yul\":1410:1425   */\n      swap1\n      pop\n        /* \"#utility.yul\":1386:1499   */\n      jump(tag_119)\n    tag_121:\n        /* \"#utility.yul\":1533:1534   */\n      0x00\n        /* \"#utility.yul\":1524:1530   */\n      dup5\n        /* \"#utility.yul\":1519:1522   */\n      dup5\n        /* \"#utility.yul\":1515:1531   */\n      add\n        /* \"#utility.yul\":1508:1535   */\n      mstore\n        /* \"#utility.yul\":1357:1541   */\n      pop\n        /* \"#utility.yul\":1295:1541   */\n      pop\n      pop\n      pop\n      jump\t// out\n        /* \"#utility.yul\":1547:1649   */\n    tag_73:\n        /* \"#utility.yul\":1588:1594   */\n      0x00\n        /* \"#utility.yul\":1639:1641   */\n      0x1f\n        /* \"#utility.yul\":1635:1642   */\n      not\n        /* \"#utility.yul\":1630:1632   */\n      0x1f\n        /* \"#utility.yul\":1623:1628   */\n      dup4\n        /* \"#utility.yul\":1619:1633   */\n      add\n        /* \"#utility.yul\":1615:1643   */\n      and\n        /* \"#utility.yul\":1605:1643   */\n      swap1\n      pop\n        /* \"#utility.yul\":1547:1649   */\n      swap2\n      swap1\n      pop\n      jump\t// out\n        /* \"#utility.yul\":1655:2012   */\n    tag_74:\n        /* \"#utility.yul\":1733:1736   */\n      0x00\n        /* \"#utility.yul\":1761:1800   */\n      tag_124\n        /* \"#utility.yul\":1794:1799   */\n      dup3\n        /* \"#utility.yul\":1761:1800   */\n      tag_70\n      jump\t// in\n    tag_124:\n        /* \"#utility.yul\":1816:1877   */\n      tag_125\n        /* \"#utility.yul\":1870:1876   */\n      dup2\n        /* \"#utility.yul\":1865:1868   */\n      dup6\n        /* \"#utility.yul\":1816:1877   */\n      tag_71\n      jump\t// in\n    tag_125:\n        /* \"#utility.yul\":1809:1877   */\n      swap4\n      pop\n        /* \"#utility.yul\":1886:1951   */\n      tag_126\n        /* \"#utility.yul\":1944:1950   */\n      dup2\n        /* \"#utility.yul\":1939:1942   */\n      dup6\n        /* \"#utility.yul\":1932:1936   */\n      0x20\n        /* \"#utility.yul\":1925:1930   */\n      dup7\n        /* \"#utility.yul\":1921:1937   */\n      add\n        /* \"#utility.yul\":1886:1951   */\n      tag_72\n      jump\t// in\n    tag_126:\n        /* \"#utility.yul\":1976:2005   */\n      tag_127\n        /* \"#utility.yul\":1998:2004   */\n      dup2\n        /* \"#utility.yul\":1976:2005   */\n      tag_73\n      jump\t// in\n    tag_127:\n        /* \"#utility.yul\":1971:1974   */\n      dup5\n        /* \"#utility.yul\":1967:2006   */\n      add\n        /* \"#utility.yul\":1960:2006   */\n      swap2\n      pop\n        /* \"#utility.yul\":1737:2012   */\n      pop\n        /* \"#utility.yul\":1655:2012   */\n      swap3\n      swap2\n      pop\n      pop\n      jump\t// out\n        /* \"#utility.yul\":2018:2108   */\n    tag_75:\n        /* \"#utility.yul\":2052:2059   */\n      0x00\n        /* \"#utility.yul\":2095:2100   */\n      dup2\n        /* \"#utility.yul\":2088:2101   */\n      iszero\n        /* \"#utility.yul\":2081:2102   */\n      iszero\n        /* \"#utility.yul\":2070:2102   */\n      swap1\n      pop\n        /* \"#utility.yul\":2018:2108   */\n      swap2\n      swap1\n      pop\n      jump\t// out\n        /* \"#utility.yul\":2114:2213   */\n    tag_76:\n        /* \"#utility.yul\":2185:2206   */\n      tag_130\n        /* \"#utility.yul\":2200:2205   */\n      dup2\n        /* \"#utility.yul\":2185:2206   */\n      tag_75\n      jump\t// in\n    tag_130:\n        /* \"#utility.yul\":2180:2183   */\n      dup3\n        /* \"#utility.yul\":2173:2207   */\n      mstore\n        /* \"#utility.yul\":2114:2213   */\n      pop\n      pop\n      jump\t// out\n        /* \"#utility.yul\":2263:2851   */\n    tag_77:\n        /* \"#utility.yul\":2370:2373   */\n      0x00\n        /* \"#utility.yul\":2406:2410   */\n      0x40\n        /* \"#utility.yul\":2401:2404   */\n      dup4\n        /* \"#utility.yul\":2397:2411   */\n      add\n        /* \"#utility.yul\":2493:2497   */\n      0x00\n        /* \"#utility.yul\":2486:2491   */\n      dup4\n        /* \"#utility.yul\":2482:2498   */\n      add\n        /* \"#utility.yul\":2476:2499   */\n      mload\n        /* \"#utility.yul\":2546:2549   */\n      dup5\n        /* \"#utility.yul\":2540:2544   */\n      dup3\n        /* \"#utility.yul\":2536:2550   */\n      sub\n        /* \"#utility.yul\":2529:2533   */\n      0x00\n        /* \"#utility.yul\":2524:2527   */\n      dup7\n        /* \"#utility.yul\":2520:2534   */\n      add\n        /* \"#utility.yul\":2513:2551   */\n      mstore\n        /* \"#utility.yul\":2572:2645   */\n      tag_132\n        /* \"#utility.yul\":2640:2644   */\n      dup3\n        /* \"#utility.yul\":2626:2638   */\n      dup3\n        /* \"#utility.yul\":2572:2645   */\n      tag_74\n      jump\t// in\n    tag_132:\n        /* \"#utility.yul\":2564:2645   */\n      swap2\n      pop\n        /* \"#utility.yul\":2421:2656   */\n      pop\n        /* \"#utility.yul\":2738:2742   */\n      0x20\n        /* \"#utility.yul\":2731:2736   */\n      dup4\n        /* \"#utility.yul\":2727:2743   */\n      add\n        /* \"#utility.yul\":2721:2744   */\n      mload\n        /* \"#utility.yul\":2757:2814   */\n      tag_133\n        /* \"#utility.yul\":2808:2812   */\n      0x20\n        /* \"#utility.yul\":2803:2806   */\n      dup7\n        /* \"#utility.yul\":2799:2813   */\n      add\n        /* \"#utility.yul\":2785:2797   */\n      dup3\n        /* \"#utility.yul\":2757:2814   */\n      tag_76\n      jump\t// in\n    tag_133:\n        /* \"#utility.yul\":2666:2824   */\n      pop\n        /* \"#utility.yul\":2841:2845   */\n      dup1\n        /* \"#utility.yul\":2834:2845   */\n      swap2\n      pop\n        /* \"#utility.yul\":2375:2851   */\n      pop\n        /* \"#utility.yul\":2263:2851   */\n      swap3\n      swap2\n      pop\n      pop\n      jump\t// out\n        /* \"#utility.yul\":2857:3206   */\n    tag_13:\n        /* \"#utility.yul\":2988:2992   */\n      0x00\n        /* \"#utility.yul\":3026:3028   */\n      0x20\n        /* \"#utility.yul\":3015:3024   */\n      dup3\n        /* \"#utility.yul\":3011:3029   */\n      add\n        /* \"#utility.yul\":3003:3029   */\n      swap1\n      pop\n        /* \"#utility.yul\":3075:3084   */\n      dup2\n        /* \"#utility.yul\":3069:3073   */\n      dup2\n        /* \"#utility.yul\":3065:3085   */\n      sub\n        /* \"#utility.yul\":3061:3062   */\n      0x00\n        /* \"#utility.yul\":3050:3059   */\n      dup4\n        /* \"#utility.yul\":3046:3063   */\n      add\n        /* \"#utility.yul\":3039:3086   */\n      mstore\n        /* \"#utility.yul\":3103:3199   */\n      tag_135\n        /* \"#utility.yul\":3194:3198   */\n      dup2\n        /* \"#utility.yul\":3185:3191   */\n      dup5\n        /* \"#utility.yul\":3103:3199   */\n      tag_77\n      jump\t// in\n    tag_135:\n        /* \"#utility.yul\":3095:3199   */\n      swap1\n      pop\n        /* \"#utility.yul\":2857:3206   */\n      swap3\n      swap2\n      pop\n      pop\n      jump\t// out\n        /* \"#utility.yul\":3212:3328   */\n    tag_78:\n        /* \"#utility.yul\":3282:3303   */\n      tag_137\n        /* \"#utility.yul\":3297:3302   */\n      dup2\n        /* \"#utility.yul\":3282:3303   */\n      tag_75\n      jump\t// in\n    tag_137:\n        /* \"#utility.yul\":3275:3280   */\n      dup2\n        /* \"#utility.yul\":3272:3304   */\n      eq\n        /* \"#utility.yul\":3262:3322   */\n      tag_138\n      jumpi\n        /* \"#utility.yul\":3318:3319   */\n      0x00\n        /* \"#utility.yul\":3315:3316   */\n      dup1\n        /* \"#utility.yul\":3308:3320   */\n      revert\n        /* \"#utility.yul\":3262:3322   */\n    tag_138:\n        /* \"#utility.yul\":3212:3328   */\n      pop\n      jump\t// out\n        /* \"#utility.yul\":3334:3467   */\n    tag_79:\n        /* \"#utility.yul\":3377:3382   */\n      0x00\n        /* \"#utility.yul\":3415:3421   */\n      dup2\n        /* \"#utility.yul\":3402:3422   */\n      calldataload\n        /* \"#utility.yul\":3393:3422   */\n      swap1\n      pop\n        /* \"#utility.yul\":3431:3461   */\n      tag_140\n        /* \"#utility.yul\":3455:3460   */\n      dup2\n        /* \"#utility.yul\":3431:3461   */\n      tag_78\n      jump\t// in\n    tag_140:\n        /* \"#utility.yul\":3334:3467   */\n      swap3\n      swap2\n      pop\n      pop\n      jump\t// out\n        /* \"#utility.yul\":3473:3941   */\n    tag_16:\n        /* \"#utility.yul\":3538:3544   */\n      0x00\n        /* \"#utility.yul\":3546:3552   */\n      dup1\n        /* \"#utility.yul\":3595:3597   */\n      0x40\n        /* \"#utility.yul\":3583:3592   */\n      dup4\n        /* \"#utility.yul\":3574:3581   */\n      dup6\n        /* \"#utility.yul\":3570:3593   */\n      sub\n        /* \"#utility.yul\":3566:3598   */\n      slt\n        /* \"#utility.yul\":3563:3682   */\n      iszero\n      tag_142\n      jumpi\n        /* \"#utility.yul\":3601:3680   */\n      tag_143\n      tag_65\n      jump\t// in\n    tag_143:\n        /* \"#utility.yul\":3563:3682   */\n    tag_142:\n        /* \"#utility.yul\":3721:3722   */\n      0x00\n        /* \"#utility.yul\":3746:3799   */\n      tag_144\n        /* \"#utility.yul\":3791:3798   */\n      dup6\n        /* \"#utility.yul\":3782:3788   */\n      dup3\n        /* \"#utility.yul\":3771:3780   */\n      dup7\n        /* \"#utility.yul\":3767:3789   */\n      add\n        /* \"#utility.yul\":3746:3799   */\n      tag_69\n      jump\t// in\n    tag_144:\n        /* \"#utility.yul\":3736:3799   */\n      swap3\n      pop\n        /* \"#utility.yul\":3692:3809   */\n      pop\n        /* \"#utility.yul\":3848:3850   */\n      0x20\n        /* \"#utility.yul\":3874:3924   */\n      tag_145\n        /* \"#utility.yul\":3916:3923   */\n      dup6\n        /* \"#utility.yul\":3907:3913   */\n      dup3\n        /* \"#utility.yul\":3896:3905   */\n      dup7\n        /* \"#utility.yul\":3892:3914   */\n      add\n        /* \"#utility.yul\":3874:3924   */\n      tag_79\n      jump\t// in\n    tag_145:\n        /* \"#utility.yul\":3864:3924   */\n      swap2\n      pop\n        /* \"#utility.yul\":3819:3934   */\n      pop\n        /* \"#utility.yul\":3473:3941   */\n      swap3\n      pop\n      swap3\n      swap1\n      pop\n      jump\t// out\n        /* \"#utility.yul\":3947:4064   */\n    tag_80:\n        /* \"#utility.yul\":4056:4057   */\n      0x00\n        /* \"#utility.yul\":4053:4054   */\n      dup1\n        /* \"#utility.yul\":4046:4058   */\n      revert\n        /* \"#utility.yul\":4070:4187   */\n    tag_81:\n        /* \"#utility.yul\":4179:4180   */\n      0x00\n        /* \"#utility.yul\":4176:4177   */\n      dup1\n        /* \"#utility.yul\":4169:4181   */\n      revert\n        /* \"#utility.yul\":4193:4310   */\n    tag_82:\n        /* \"#utility.yul\":4302:4303   */\n      0x00\n        /* \"#utility.yul\":4299:4300   */\n      dup1\n        /* \"#utility.yul\":4292:4304   */\n      revert\n        /* \"#utility.yul\":4330:4883   */\n    tag_83:\n        /* \"#utility.yul\":4388:4396   */\n      0x00\n        /* \"#utility.yul\":4398:4404   */\n      dup1\n        /* \"#utility.yul\":4448:4451   */\n      dup4\n        /* \"#utility.yul\":4441:4445   */\n      0x1f\n        /* \"#utility.yul\":4433:4439   */\n      dup5\n        /* \"#utility.yul\":4429:4446   */\n      add\n        /* \"#utility.yul\":4425:4452   */\n      slt\n        /* \"#utility.yul\":4415:4537   */\n      tag_150\n      jumpi\n        /* \"#utility.yul\":4456:4535   */\n      tag_151\n      tag_80\n      jump\t// in\n    tag_151:\n        /* \"#utility.yul\":4415:4537   */\n    tag_150:\n        /* \"#utility.yul\":4569:4575   */\n      dup3\n        /* \"#utility.yul\":4556:4576   */\n      calldataload\n        /* \"#utility.yul\":4546:4576   */\n      swap1\n      pop\n        /* \"#utility.yul\":4599:4617   */\n      0xffffffffffffffff\n        /* \"#utility.yul\":4591:4597   */\n      dup2\n        /* \"#utility.yul\":4588:4618   */\n      gt\n        /* \"#utility.yul\":4585:4702   */\n      iszero\n      tag_152\n      jumpi\n        /* \"#utility.yul\":4621:4700   */\n      tag_153\n      tag_81\n      jump\t// in\n    tag_153:\n        /* \"#utility.yul\":4585:4702   */\n    tag_152:\n        /* \"#utility.yul\":4735:4739   */\n      0x20\n        /* \"#utility.yul\":4727:4733   */\n      dup4\n        /* \"#utility.yul\":4723:4740   */\n      add\n        /* \"#utility.yul\":4711:4740   */\n      swap2\n      pop\n        /* \"#utility.yul\":4789:4792   */\n      dup4\n        /* \"#utility.yul\":4781:4785   */\n      0x01\n        /* \"#utility.yul\":4773:4779   */\n      dup3\n        /* \"#utility.yul\":4769:4786   */\n      mul\n        /* \"#utility.yul\":4759:4767   */\n      dup4\n        /* \"#utility.yul\":4755:4787   */\n      add\n        /* \"#utility.yul\":4752:4793   */\n      gt\n        /* \"#utility.yul\":4749:4877   */\n      iszero\n      tag_154\n      jumpi\n        /* \"#utility.yul\":4796:4875   */\n      tag_155\n      tag_82\n      jump\t// in\n    tag_155:\n        /* \"#utility.yul\":4749:4877   */\n    tag_154:\n        /* \"#utility.yul\":4330:4883   */\n      swap3\n      pop\n      swap3\n      swap1\n      pop\n      jump\t// out\n        /* \"#utility.yul\":4889:5418   */\n    tag_23:\n        /* \"#utility.yul\":4960:4966   */\n      0x00\n        /* \"#utility.yul\":4968:4974   */\n      dup1\n        /* \"#utility.yul\":5017:5019   */\n      0x20\n        /* \"#utility.yul\":5005:5014   */\n      dup4\n        /* \"#utility.yul\":4996:5003   */\n      dup6\n        /* \"#utility.yul\":4992:5015   */\n      sub\n        /* \"#utility.yul\":4988:5020   */\n      slt\n        /* \"#utility.yul\":4985:5104   */\n      iszero\n      tag_157\n      jumpi\n        /* \"#utility.yul\":5023:5102   */\n      tag_158\n      tag_65\n      jump\t// in\n    tag_158:\n        /* \"#utility.yul\":4985:5104   */\n    tag_157:\n        /* \"#utility.yul\":5171:5172   */\n      0x00\n        /* \"#utility.yul\":5160:5169   */\n      dup4\n        /* \"#utility.yul\":5156:5173   */\n      add\n        /* \"#utility.yul\":5143:5174   */\n      calldataload\n        /* \"#utility.yul\":5201:5219   */\n      0xffffffffffffffff\n        /* \"#utility.yul\":5193:5199   */\n      dup2\n        /* \"#utility.yul\":5190:5220   */\n      gt\n        /* \"#utility.yul\":5187:5304   */\n      iszero\n      tag_159\n      jumpi\n        /* \"#utility.yul\":5223:5302   */\n      tag_160\n      tag_66\n      jump\t// in\n    tag_160:\n        /* \"#utility.yul\":5187:5304   */\n    tag_159:\n        /* \"#utility.yul\":5336:5401   */\n      tag_161\n        /* \"#utility.yul\":5393:5400   */\n      dup6\n        /* \"#utility.yul\":5384:5390   */\n      dup3\n        /* \"#utility.yul\":5373:5382   */\n      dup7\n        /* \"#utility.yul\":5369:5391   */\n      add\n        /* \"#utility.yul\":5336:5401   */\n      tag_83\n      jump\t// in\n    tag_161:\n        /* \"#utility.yul\":5318:5401   */\n      swap3\n      pop\n      swap3\n      pop\n        /* \"#utility.yul\":5114:5411   */\n      pop\n        /* \"#utility.yul\":4889:5418   */\n      swap3\n      pop\n      swap3\n      swap1\n      pop\n      jump\t// out\n        /* \"#utility.yul\":5424:5542   */\n    tag_84:\n        /* \"#utility.yul\":5511:5535   */\n      tag_163\n        /* \"#utility.yul\":5529:5534   */\n      dup2\n        /* \"#utility.yul\":5511:5535   */\n      tag_67\n      jump\t// in\n    tag_163:\n        /* \"#utility.yul\":5506:5509   */\n      dup3\n        /* \"#utility.yul\":5499:5536   */\n      mstore\n        /* \"#utility.yul\":5424:5542   */\n      pop\n      pop\n      jump\t// out\n        /* \"#utility.yul\":5548:5770   */\n    tag_28:\n        /* \"#utility.yul\":5641:5645   */\n      0x00\n        /* \"#utility.yul\":5679:5681   */\n      0x20\n        /* \"#utility.yul\":5668:5677   */\n      dup3\n        /* \"#utility.yul\":5664:5682   */\n      add\n        /* \"#utility.yul\":5656:5682   */\n      swap1\n      pop\n        /* \"#utility.yul\":5692:5763   */\n      tag_165\n        /* \"#utility.yul\":5760:5761   */\n      0x00\n        /* \"#utility.yul\":5749:5758   */\n      dup4\n        /* \"#utility.yul\":5745:5762   */\n      add\n        /* \"#utility.yul\":5736:5742   */\n      dup5\n        /* \"#utility.yul\":5692:5763   */\n      tag_84\n      jump\t// in\n    tag_165:\n        /* \"#utility.yul\":5548:5770   */\n      swap3\n      swap2\n      pop\n      pop\n      jump\t// out\n        /* \"#utility.yul\":5776:5956   */\n    tag_34:\n        /* \"#utility.yul\":5824:5901   */\n      0x4e487b7100000000000000000000000000000000000000000000000000000000\n        /* \"#utility.yul\":5821:5822   */\n      0x00\n        /* \"#utility.yul\":5814:5902   */\n      mstore\n        /* \"#utility.yul\":5921:5925   */\n      0x32\n        /* \"#utility.yul\":5918:5919   */\n      0x04\n        /* \"#utility.yul\":5911:5926   */\n      mstore\n        /* \"#utility.yul\":5945:5949   */\n      0x24\n        /* \"#utility.yul\":5942:5943   */\n      0x00\n        /* \"#utility.yul\":5935:5950   */\n      revert\n        /* \"#utility.yul\":5962:6142   */\n    tag_85:\n        /* \"#utility.yul\":6010:6087   */\n      0x4e487b7100000000000000000000000000000000000000000000000000000000\n        /* \"#utility.yul\":6007:6008   */\n      0x00\n        /* \"#utility.yul\":6000:6088   */\n      mstore\n        /* \"#utility.yul\":6107:6111   */\n      0x22\n        /* \"#utility.yul\":6104:6105   */\n      0x04\n        /* \"#utility.yul\":6097:6112   */\n      mstore\n        /* \"#utility.yul\":6131:6135   */\n      0x24\n        /* \"#utility.yul\":6128:6129   */\n      0x00\n        /* \"#utility.yul\":6121:6136   */\n      revert\n        /* \"#utility.yul\":6148:6468   */\n    tag_37:\n        /* \"#utility.yul\":6192:6198   */\n      0x00\n        /* \"#utility.yul\":6229:6230   */\n      0x02\n        /* \"#utility.yul\":6223:6227   */\n      dup3\n        /* \"#utility.yul\":6219:6231   */\n      div\n        /* \"#utility.yul\":6209:6231   */\n      swap1\n      pop\n        /* \"#utility.yul\":6276:6277   */\n      0x01\n        /* \"#utility.yul\":6270:6274   */\n      dup3\n        /* \"#utility.yul\":6266:6278   */\n      and\n        /* \"#utility.yul\":6297:6315   */\n      dup1\n        /* \"#utility.yul\":6287:6368   */\n      tag_169\n      jumpi\n        /* \"#utility.yul\":6353:6357   */\n      0x7f\n        /* \"#utility.yul\":6345:6351   */\n      dup3\n        /* \"#utility.yul\":6341:6358   */\n      and\n        /* \"#utility.yul\":6331:6358   */\n      swap2\n      pop\n        /* \"#utility.yul\":6287:6368   */\n    tag_169:\n        /* \"#utility.yul\":6415:6417   */\n      0x20\n        /* \"#utility.yul\":6407:6413   */\n      dup3\n        /* \"#utility.yul\":6404:6418   */\n      lt\n        /* \"#utility.yul\":6384:6402   */\n      dup2\n        /* \"#utility.yul\":6381:6419   */\n      sub\n        /* \"#utility.yul\":6378:6462   */\n      tag_170\n      jumpi\n        /* \"#utility.yul\":6434:6452   */\n      tag_171\n      tag_85\n      jump\t// in\n    tag_171:\n        /* \"#utility.yul\":6378:6462   */\n    tag_170:\n        /* \"#utility.yul\":6199:6468   */\n      pop\n        /* \"#utility.yul\":6148:6468   */\n      swap2\n      swap1\n      pop\n      jump\t// out\n        /* \"#utility.yul\":6474:6654   */\n    tag_86:\n        /* \"#utility.yul\":6522:6599   */\n      0x4e487b7100000000000000000000000000000000000000000000000000000000\n        /* \"#utility.yul\":6519:6520   */\n      0x00\n        /* \"#utility.yul\":6512:6600   */\n      mstore\n        /* \"#utility.yul\":6619:6623   */\n      0x41\n        /* \"#utility.yul\":6616:6617   */\n      0x04\n        /* \"#utility.yul\":6609:6624   */\n      mstore\n        /* \"#utility.yul\":6643:6647   */\n      0x24\n        /* \"#utility.yul\":6640:6641   */\n      0x00\n        /* \"#utility.yul\":6633:6648   */\n      revert\n        /* \"#utility.yul\":6660:6801   */\n    tag_87:\n        /* \"#utility.yul\":6709:6713   */\n      0x00\n        /* \"#utility.yul\":6732:6735   */\n      dup2\n        /* \"#utility.yul\":6724:6735   */\n      swap1\n      pop\n        /* \"#utility.yul\":6755:6758   */\n      dup2\n        /* \"#utility.yul\":6752:6753   */\n      0x00\n        /* \"#utility.yul\":6745:6759   */\n      mstore\n        /* \"#utility.yul\":6789:6793   */\n      0x20\n        /* \"#utility.yul\":6786:6787   */\n      0x00\n        /* \"#utility.yul\":6776:6794   */\n      keccak256\n        /* \"#utility.yul\":6768:6794   */\n      swap1\n      pop\n        /* \"#utility.yul\":6660:6801   */\n      swap2\n      swap1\n      pop\n      jump\t// out\n        /* \"#utility.yul\":6807:6900   */\n    tag_88:\n        /* \"#utility.yul\":6844:6850   */\n      0x00\n        /* \"#utility.yul\":6891:6893   */\n      0x20\n        /* \"#utility.yul\":6886:6888   */\n      0x1f\n        /* \"#utility.yul\":6879:6884   */\n      dup4\n        /* \"#utility.yul\":6875:6889   */\n      add\n        /* \"#utility.yul\":6871:6894   */\n      div\n        /* \"#utility.yul\":6861:6894   */\n      swap1\n      pop\n        /* \"#utility.yul\":6807:6900   */\n      swap2\n      swap1\n      pop\n      jump\t// out\n        /* \"#utility.yul\":6906:7013   */\n    tag_89:\n        /* \"#utility.yul\":6950:6958   */\n      0x00\n        /* \"#utility.yul\":7000:7005   */\n      dup3\n        /* \"#utility.yul\":6994:6998   */\n      dup3\n        /* \"#utility.yul\":6990:7006   */\n      shl\n        /* \"#utility.yul\":6969:7006   */\n      swap1\n      pop\n        /* \"#utility.yul\":6906:7013   */\n      swap3\n      swap2\n      pop\n      pop\n      jump\t// out\n        /* \"#utility.yul\":7019:7412   */\n    tag_90:\n        /* \"#utility.yul\":7088:7094   */\n      0x00\n        /* \"#utility.yul\":7138:7139   */\n      0x08\n        /* \"#utility.yul\":7126:7136   */\n      dup4\n        /* \"#utility.yul\":7122:7140   */\n      mul\n        /* \"#utility.yul\":7161:7258   */\n      tag_177\n        /* \"#utility.yul\":7191:7257   */\n      0xffffffffffffffffffffffffffffffffffffffffffffffffffffffffffffffff\n        /* \"#utility.yul\":7180:7189   */\n      dup3\n        /* \"#utility.yul\":7161:7258   */\n      tag_89\n      jump\t// in\n    tag_177:\n        /* \"#utility.yul\":7279:7318   */\n      tag_178\n        /* \"#utility.yul\":7309:7317   */\n      dup7\n        /* \"#utility.yul\":7298:7307   */\n      dup4\n        /* \"#utility.yul\":7279:7318   */\n      tag_89\n      jump\t// in\n    tag_178:\n        /* \"#utility.yul\":7267:7318   */\n      swap6\n      pop\n        /* \"#utility.yul\":7351:7355   */\n      dup1\n        /* \"#utility.yul\":7347:7356   */\n      not\n        /* \"#utility.yul\":7340:7345   */\n      dup5\n        /* \"#utility.yul\":7336:7357   */\n      and\n        /* \"#utility.yul\":7327:7357   */\n      swap4\n      pop\n        /* \"#utility.yul\":7400:7404   */\n      dup1\n        /* \"#utility.yul\":7390:7398   */\n      dup7\n        /* \"#utility.yul\":7386:7405   */\n      and\n        /* \"#utility.yul\":7379:7384   */\n      dup5\n        /* \"#utility.yul\":7376:7406   */\n      or\n        /* \"#utility.yul\":7366:7406   */\n      swap3\n      pop\n        /* \"#utility.yul\":7095:7412   */\n      pop\n      pop\n        /* \"#utility.yul\":7019:7412   */\n      swap4\n      swap3\n      pop\n      pop\n      pop\n      jump\t// out\n        /* \"#utility.yul\":7418:7478   */\n    tag_91:\n        /* \"#utility.yul\":7446:7449   */\n      0x00\n        /* \"#utility.yul\":7467:7472   */\n      dup2\n        /* \"#utility.yul\":7460:7472   */\n      swap1\n      pop\n        /* \"#utility.yul\":7418:7478   */\n      swap2\n      swap1\n      pop\n      jump\t// out\n        /* \"#utility.yul\":7484:7626   */\n    tag_92:\n        /* \"#utility.yul\":7534:7543   */\n      0x00\n        /* \"#utility.yul\":7567:7620   */\n      tag_181\n        /* \"#utility.yul\":7585:7619   */\n      tag_182\n        /* \"#utility.yul\":7594:7618   */\n      tag_183\n        /* \"#utility.yul\":7612:7617   */\n      dup5\n        /* \"#utility.yul\":7594:7618   */\n      tag_67\n      jump\t// in\n    tag_183:\n        /* \"#utility.yul\":7585:7619   */\n      tag_91\n      jump\t// in\n    tag_182:\n        /* \"#utility.yul\":7567:7620   */\n      tag_67\n      jump\t// in\n    tag_181:\n        /* \"#utility.yul\":7554:7620   */\n      swap1\n      pop\n        /* \"#utility.yul\":7484:7626   */\n      swap2\n      swap1\n      pop\n      jump\t// out\n        /* \"#utility.yul\":7632:7707   */\n    tag_93:\n        /* \"#utility.yul\":7675:7678   */\n      0x00\n        /* \"#utility.yul\":7696:7701   */\n      dup2\n        /* \"#utility.yul\":7689:7701   */\n      swap1\n      pop\n        /* \"#utility.yul\":7632:7707   */\n      swap2\n      swap1\n      pop\n      jump\t// out\n        /* \"#utility.yul\":7713:7982   */\n    tag_94:\n        /* \"#utility.yul\":7823:7862   */\n      tag_186\n        /* \"#utility.yul\":7854:7861   */\n      dup4\n        /* \"#utility.yul\":7823:7862   */\n      tag_92\n      jump\t// in\n    tag_186:\n        /* \"#utility.yul\":7884:7975   */\n      tag_187\n        /* \"#utility.yul\":7933:7974   */\n      tag_188\n        /* \"#utility.yul\":7957:7973   */\n      dup3\n        /* \"#utility.yul\":7933:7974   */\n      tag_93\n      jump\t// in\n    tag_188:\n        /* \"#utility.yul\":7925:7931   */\n      dup5\n        /* \"#utility.yul\":7918:7922   */\n      dup5\n        /* \"#utility.yul\":7912:7923   */\n      sload\n        /* \"#utility.yul\":7884:7975   */\n      tag_90\n      jump\t// in\n    tag_187:\n        /* \"#utility.yul\":7878:7882   */\n      dup3\n        /* \"#utility.yul\":7871:7976   */\n      sstore\n        /* \"#utility.yul\":7789:7982   */\n      pop\n        /* \"#utility.yul\":7713:7982   */\n      pop\n      pop\n      pop\n      jump\t// out\n        /* \"#utility.yul\":7988:8061   */\n    tag_95:\n        /* \"#utility.yul\":8033:8036   */\n      0x00\n        /* \"#utility.yul\":7988:8061   */\n      swap1\n      jump\t// out\n        /* \"#utility.yul\":8067:8256   */\n    tag_96:\n        /* \"#utility.yul\":8144:8176   */\n      tag_191\n      tag_95\n      jump\t// in\n    tag_191:\n        /* \"#utility.yul\":8185:8250   */\n      tag_192\n        /* \"#utility.yul\":8243:8249   */\n      dup2\n        /* \"#utility.yul\":8235:8241   */\n      dup5\n        /* \"#utility.yul\":8229:8233   */\n      dup5\n        /* \"#utility.yul\":8185:8250   */\n      tag_94\n      jump\t// in\n    tag_192:\n        /* \"#utility.yul\":8120:8256   */\n      pop\n        /* \"#utility.yul\":8067:8256   */\n      pop\n      pop\n      jump\t// out\n        /* \"#utility.yul\":8262:8448   */\n    tag_97:\n        /* \"#utility.yul\":8322:8442   */\n    tag_194:\n        /* \"#utility.yul\":8339:8342   */\n      dup2\n        /* \"#utility.yul\":8332:8337   */\n      dup2\n        /* \"#utility.yul\":8329:8343   */\n      lt\n        /* \"#utility.yul\":8322:8442   */\n      iszero\n      tag_196\n      jumpi\n        /* \"#utility.yul\":8393:8432   */\n      tag_197\n        /* \"#utility.yul\":8430:8431   */\n      0x00\n        /* \"#utility.yul\":8423:8428   */\n      dup3\n        /* \"#utility.yul\":8393:8432   */\n      tag_96\n      jump\t// in\n    tag_197:\n        /* \"#utility.yul\":8366:8367   */\n      0x01\n        /* \"#utility.yul\":8359:8364   */\n      dup2\n        /* \"#utility.yul\":8355:8368   */\n      add\n        /* \"#utility.yul\":8346:8368   */\n      swap1\n      pop\n        /* \"#utility.yul\":8322:8442   */\n      jump(tag_194)\n    tag_196:\n        /* \"#utility.yul\":8262:8448   */\n      pop\n      pop\n      jump\t// out\n        /* \"#utility.yul\":8454:8997   */\n    tag_98:\n        /* \"#utility.yul\":8555:8557   */\n      0x1f\n        /* \"#utility.yul\":8550:8553   */\n      dup3\n        /* \"#utility.yul\":8547:8558   */\n      gt\n        /* \"#utility.yul\":8544:8990   */\n      iszero\n      tag_199\n      jumpi\n        /* \"#utility.yul\":8589:8627   */\n      tag_200\n        /* \"#utility.yul\":8621:8626   */\n      dup2\n        /* \"#utility.yul\":8589:8627   */\n      tag_87\n      jump\t// in\n    tag_200:\n        /* \"#utility.yul\":8673:8702   */\n      tag_201\n        /* \"#utility.yul\":8691:8701   */\n      dup5\n        /* \"#utility.yul\":8673:8702   */\n      tag_88\n      jump\t// in\n    tag_201:\n        /* \"#utility.yul\":8663:8671   */\n      dup2\n        /* \"#utility.yul\":8659:8703   */\n      add\n        /* \"#utility.yul\":8856:8858   */\n      0x20\n        /* \"#utility.yul\":8844:8854   */\n      dup6\n        /* \"#utility.yul\":8841:8859   */\n      lt\n        /* \"#utility.yul\":8838:8887   */\n      iszero\n      tag_202\n      jumpi\n        /* \"#utility.yul\":8877:8885   */\n      dup2\n        /* \"#utility.yul\":8862:8885   */\n      swap1\n      pop\n        /* \"#utility.yul\":8838:8887   */\n    tag_202:\n        /* \"#utility.yul\":8900:8980   */\n      tag_203\n        /* \"#utility.yul\":8956:8978   */\n      tag_204\n        /* \"#utility.yul\":8974:8977   */\n      dup6\n        /* \"#utility.yul\":8956:8978   */\n      tag_88\n      jump\t// in\n    tag_204:\n        /* \"#utility.yul\":8946:8954   */\n      dup4\n        /* \"#utility.yul\":8942:8979   */\n      add\n        /* \"#utility.yul\":8929:8940   */\n      dup3\n        /* \"#utility.yul\":8900:8980   */\n      tag_97\n      jump\t// in\n    tag_203:\n        /* \"#utility.yul\":8559:8990   */\n      pop\n      pop\n        /* \"#utility.yul\":8544:8990   */\n    tag_199:\n        /* \"#utility.yul\":8454:8997   */\n      pop\n      pop\n      pop\n      jump\t// out\n        /* \"#utility.yul\":9003:9120   */\n    tag_99:\n        /* \"#utility.yul\":9057:9065   */\n      0x00\n        /* \"#utility.yul\":9107:9112   */\n      dup3\n        /* \"#utility.yul\":9101:9105   */\n      dup3\n        /* \"#utility.yul\":9097:9113   */\n      shr\n        /* \"#utility.yul\":9076:9113   */\n      swap1\n      pop\n        /* \"#utility.yul\":9003:9120   */\n      swap3\n      swap2\n      pop\n      pop\n      jump\t// out\n        /* \"#utility.yul\":9126:9295   */\n    tag_100:\n        /* \"#utility.yul\":9170:9176   */\n      0x00\n        /* \"#utility.yul\":9203:9254   */\n      tag_207\n        /* \"#utility.yul\":9251:9252   */\n      0x00\n        /* \"#utility.yul\":9247:9253   */\n      not\n        /* \"#utility.yul\":9239:9244   */\n      dup5\n        /* \"#utility.yul\":9236:9237   */\n      0x08\n        /* \"#utility.yul\":9232:9245   */\n      mul\n        /* \"#utility.yul\":9203:9254   */\n      tag_99\n      jump\t// in\n    tag_207:\n        /* \"#utility.yul\":9199:9255   */\n      not\n        /* \"#utility.yul\":9284:9288   */\n      dup1\n        /* \"#utility.yul\":9278:9282   */\n      dup4\n        /* \"#utility.yul\":9274:9289   */\n      and\n        /* \"#utility.yul\":9264:9289   */\n      swap2\n      pop\n        /* \"#utility.yul\":9177:9295   */\n      pop\n        /* \"#utility.yul\":9126:9295   */\n      swap3\n      swap2\n      pop\n      pop\n      jump\t// out\n        /* \"#utility.yul\":9300:9595   */\n    tag_101:\n        /* \"#utility.yul\":9376:9380   */\n      0x00\n        /* \"#utility.yul\":9522:9551   */\n      tag_209\n        /* \"#utility.yul\":9547:9550   */\n      dup4\n        /* \"#utility.yul\":9541:9545   */\n      dup4\n        /* \"#utility.yul\":9522:9551   */\n      tag_100\n      jump\t// in\n    tag_209:\n        /* \"#utility.yul\":9514:9551   */\n      swap2\n      pop\n        /* \"#utility.yul\":9584:9587   */\n      dup3\n        /* \"#utility.yul\":9581:9582   */\n      0x02\n        /* \"#utility.yul\":9577:9588   */\n      mul\n        /* \"#utility.yul\":9571:9575   */\n      dup3\n        /* \"#utility.yul\":9568:9589   */\n      or\n        /* \"#utility.yul\":9560:9589   */\n      swap1\n      pop\n        /* \"#utility.yul\":9300:9595   */\n      swap3\n      swap2\n      pop\n      pop\n      jump\t// out\n        /* \"#utility.yul\":9600:10995   */\n    tag_55:\n        /* \"#utility.yul\":9717:9754   */\n      tag_211\n        /* \"#utility.yul\":9750:9753   */\n      dup3\n        /* \"#utility.yul\":9717:9754   */\n      tag_70\n      jump\t// in\n    tag_211:\n        /* \"#utility.yul\":9819:9837   */\n      0xffffffffffffffff\n        /* \"#utility.yul\":9811:9817   */\n      dup2\n        /* \"#utility.yul\":9808:9838   */\n      gt\n        /* \"#utility.yul\":9805:9861   */\n      iszero\n      tag_212\n      jumpi\n        /* \"#utility.yul\":9841:9859   */\n      tag_213\n      tag_86\n      jump\t// in\n    tag_213:\n        /* \"#utility.yul\":9805:9861   */\n    tag_212:\n        /* \"#utility.yul\":9885:9923   */\n      tag_214\n        /* \"#utility.yul\":9917:9921   */\n      dup3\n        /* \"#utility.yul\":9911:9922   */\n      sload\n        /* \"#utility.yul\":9885:9923   */\n      tag_37\n      jump\t// in\n    tag_214:\n        /* \"#utility.yul\":9970:10037   */\n      tag_215\n        /* \"#utility.yul\":10030:10036   */\n      dup3\n        /* \"#utility.yul\":10022:10028   */\n      dup3\n        /* \"#utility.yul\":10016:10020   */\n      dup6\n        /* \"#utility.yul\":9970:10037   */\n      tag_98\n      jump\t// in\n    tag_215:\n        /* \"#utility.yul\":10064:10065   */\n      0x00\n        /* \"#utility.yul\":10088:10092   */\n      0x20\n        /* \"#utility.yul\":10075:10092   */\n      swap1\n      pop\n        /* \"#utility.yul\":10120:10122   */\n      0x1f\n        /* \"#utility.yul\":10112:10118   */\n      dup4\n        /* \"#utility.yul\":10109:10123   */\n      gt\n        /* \"#utility.yul\":10137:10138   */\n      0x01\n        /* \"#utility.yul\":10132:10750   */\n      dup2\n      eq\n      tag_217\n      jumpi\n        /* \"#utility.yul\":10794:10795   */\n      0x00\n        /* \"#utility.yul\":10811:10817   */\n      dup5\n        /* \"#utility.yul\":10808:10885   */\n      iszero\n      tag_218\n      jumpi\n        /* \"#utility.yul\":10860:10869   */\n      dup3\n        /* \"#utility.yul\":10855:10858   */\n      dup8\n        /* \"#utility.yul\":10851:10870   */\n      add\n        /* \"#utility.yul\":10845:10871   */\n      mload\n        /* \"#utility.yul\":10836:10871   */\n      swap1\n      pop\n        /* \"#utility.yul\":10808:10885   */\n    tag_218:\n        /* \"#utility.yul\":10911:10978   */\n      tag_219\n        /* \"#utility.yul\":10971:10977   */\n      dup6\n        /* \"#utility.yul\":10964:10969   */\n      dup3\n        /* \"#utility.yul\":10911:10978   */\n      tag_101\n      jump\t// in\n    tag_219:\n        /* \"#utility.yul\":10905:10909   */\n      dup7\n        /* \"#utility.yul\":10898:10979   */\n      sstore\n        /* \"#utility.yul\":10767:10989   */\n      pop\n        /* \"#utility.yul\":10102:10989   */\n      jump(tag_216)\n        /* \"#utility.yul\":10132:10750   */\n    tag_217:\n        /* \"#utility.yul\":10184:10188   */\n      0x1f\n        /* \"#utility.yul\":10180:10189   */\n      not\n        /* \"#utility.yul\":10172:10178   */\n      dup5\n        /* \"#utility.yul\":10168:10190   */\n      and\n        /* \"#utility.yul\":10218:10255   */\n      tag_220\n        /* \"#utility.yul\":10250:10254   */\n      dup7\n        /* \"#utility.yul\":10218:10255   */\n      tag_87\n      jump\t// in\n    tag_220:\n        /* \"#utility.yul\":10277:10278   */\n      0x00\n        /* \"#utility.yul\":10291:10499   */\n    tag_221:\n        /* \"#utility.yul\":10305:10312   */\n      dup3\n        /* \"#utility.yul\":10302:10303   */\n      dup2\n        /* \"#utility.yul\":10299:10313   */\n      lt\n        /* \"#utility.yul\":10291:10499   */\n      iszero\n      tag_223\n      jumpi\n        /* \"#utility.yul\":10384:10393   */\n      dup5\n        /* \"#utility.yul\":10379:10382   */\n      dup10\n        /* \"#utility.yul\":10375:10394   */\n      add\n        /* \"#utility.yul\":10369:10395   */\n      mload\n        /* \"#utility.yul\":10361:10367   */\n      dup3\n        /* \"#utility.yul\":10354:10396   */\n      sstore\n        /* \"#utility.yul\":10435:10436   */\n      0x01\n        /* \"#utility.yul\":10427:10433   */\n      dup3\n        /* \"#utility.yul\":10423:10437   */\n      add\n        /* \"#utility.yul\":10413:10437   */\n      swap2\n      pop\n        /* \"#utility.yul\":10482:10484   */\n      0x20\n        /* \"#utility.yul\":10471:10480   */\n      dup6\n        /* \"#utility.yul\":10467:10485   */\n      add\n        /* \"#utility.yul\":10454:10485   */\n      swap5\n      pop\n        /* \"#utility.yul\":10328:10332   */\n      0x20\n        /* \"#utility.yul\":10325:10326   */\n      dup2\n        /* \"#utility.yul\":10321:10333   */\n      add\n        /* \"#utility.yul\":10316:10333   */\n      swap1\n      pop\n        /* \"#utility.yul\":10291:10499   */\n      jump(tag_221)\n    tag_223:\n        /* \"#utility.yul\":10527:10533   */\n      dup7\n        /* \"#utility.yul\":10518:10525   */\n      dup4\n        /* \"#utility.yul\":10515:10534   */\n      lt\n        /* \"#utility.yul\":10512:10691   */\n      iszero\n      tag_224\n      jumpi\n        /* \"#utility.yul\":10585:10594   */\n      dup5\n        /* \"#utility.yul\":10580:10583   */\n      dup10\n        /* \"#utility.yul\":10576:10595   */\n      add\n        /* \"#utility.yul\":10570:10596   */\n      mload\n        /* \"#utility.yul\":10628:10676   */\n      tag_225\n        /* \"#utility.yul\":10670:10674   */\n      0x1f\n        /* \"#utility.yul\":10662:10668   */\n      dup10\n        /* \"#utility.yul\":10658:10675   */\n      and\n        /* \"#utility.yul\":10647:10656   */\n      dup3\n        /* \"#utility.yul\":10628:10676   */\n      tag_100\n      jump\t// in\n    tag_225:\n        /* \"#utility.yul\":10620:10626   */\n      dup4\n        /* \"#utility.yul\":10613:10677   */\n      sstore\n        /* \"#utility.yul\":10535:10691   */\n      pop\n        /* \"#utility.yul\":10512:10691   */\n    tag_224:\n        /* \"#utility.yul\":10737:10738   */\n      0x01\n        /* \"#utility.yul\":10733:10734   */\n      0x02\n        /* \"#utility.yul\":10725:10731   */\n      dup9\n        /* \"#utility.yul\":10721:10735   */\n      mul\n        /* \"#utility.yul\":10717:10739   */\n      add\n        /* \"#utility.yul\":10711:10715   */\n      dup9\n        /* \"#utility.yul\":10704:10740   */\n      sstore\n        /* \"#utility.yul\":10139:10750   */\n      pop\n      pop\n      pop\n        /* \"#utility.yul\":10102:10989   */\n    tag_216:\n      pop\n        /* \"#utility.yul\":9692:10995   */\n      pop\n      pop\n      pop\n        /* \"#utility.yul\":9600:10995   */\n      pop\n      pop\n      jump\t// out\n\n    auxdata: 0xa2646970667358221220c7c2305ff86b93e83ef10d3ff8c713e731c3724bcaba45a9e917f29b29cde0ee64736f6c63430008160033\n}\n",
				"bytecode": {
					"linkReferences": {},
					"object": "608060405234801561000f575f80fd5b50610abd8061001d5f395ff3fe608060405234801561000f575f80fd5b5060043610610055575f3560e01c80631d65e77e14610059578063387008c214610089578063560f3192146100a557806367238562146100c1578063c17a340e146100dd575b5f80fd5b610073600480360381019061006e91906104ff565b6100fb565b6040516100809190610608565b60405180910390f35b6100a3600480360381019061009e9190610652565b61021d565b005b6100bf60048036038101906100ba91906104ff565b610295565b005b6100db60048036038101906100d691906106f1565b610316565b005b6100e561040b565b6040516100f2919061074b565b60405180910390f35b610103610451565b5f805f3373ffffffffffffffffffffffffffffffffffffffff1673ffffffffffffffffffffffffffffffffffffffff1681526020019081526020015f20838154811061015257610151610764565b5b905f5260205f2090600202019050806040518060400160405290815f8201805461017b906107be565b80601f01602080910402602001604051908101604052809291908181526020018280546101a7906107be565b80156101f25780601f106101c9576101008083540402835291602001916101f2565b820191905f5260205f20905b8154815290600101906020018083116101d557829003601f168201915b50505050508152602001600182015f9054906101000a900460ff161515151581525050915050919050565b805f803373ffffffffffffffffffffffffffffffffffffffff1673ffffffffffffffffffffffffffffffffffffffff1681526020019081526020015f20838154811061026c5761026b610764565b5b905f5260205f2090600202016001015f6101000a81548160ff0219169083151502179055505050565b5f803373ffffffffffffffffffffffffffffffffffffffff1673ffffffffffffffffffffffffffffffffffffffff1681526020019081526020015f2081815481106102e3576102e2610764565b5b905f5260205f2090600202015f8082015f6102fe919061046c565b600182015f6101000a81549060ff0219169055505050565b5f803373ffffffffffffffffffffffffffffffffffffffff1673ffffffffffffffffffffffffffffffffffffffff1681526020019081526020015f20604051806040016040528084848080601f0160208091040260200160405190810160405280939291908181526020018383808284375f81840152601f19601f8201169050808301925050505050505081526020015f1515815250908060018154018082558091505060019003905f5260205f2090600202015f909190919091505f820151815f0190816103e591906109b8565b506020820151816001015f6101000a81548160ff02191690831515021790555050505050565b5f805f3373ffffffffffffffffffffffffffffffffffffffff1673ffffffffffffffffffffffffffffffffffffffff1681526020019081526020015f2080549050905090565b6040518060400160405280606081526020015f151581525090565b508054610478906107be565b5f825580601f1061048957506104a6565b601f0160209004905f5260205f20908101906104a591906104a9565b5b50565b5b808211156104c0575f815f9055506001016104aa565b5090565b5f80fd5b5f80fd5b5f819050919050565b6104de816104cc565b81146104e8575f80fd5b50565b5f813590506104f9816104d5565b92915050565b5f60208284031215610514576105136104c4565b5b5f610521848285016104eb565b91505092915050565b5f81519050919050565b5f82825260208201905092915050565b5f5b83811015610561578082015181840152602081019050610546565b5f8484015250505050565b5f601f19601f8301169050919050565b5f6105868261052a565b6105908185610534565b93506105a0818560208601610544565b6105a98161056c565b840191505092915050565b5f8115159050919050565b6105c8816105b4565b82525050565b5f604083015f8301518482035f8601526105e8828261057c565b91505060208301516105fd60208601826105bf565b508091505092915050565b5f6020820190508181035f83015261062081846105ce565b905092915050565b610631816105b4565b811461063b575f80fd5b50565b5f8135905061064c81610628565b92915050565b5f8060408385031215610668576106676104c4565b5b5f610675858286016104eb565b92505060206106868582860161063e565b9150509250929050565b5f80fd5b5f80fd5b5f80fd5b5f8083601f8401126106b1576106b0610690565b5b8235905067ffffffffffffffff8111156106ce576106cd610694565b5b6020830191508360018202830111156106ea576106e9610698565b5b9250929050565b5f8060208385031215610707576107066104c4565b5b5f83013567ffffffffffffffff811115610724576107236104c8565b5b6107308582860161069c565b92509250509250929050565b610745816104cc565b82525050565b5f60208201905061075e5f83018461073c565b92915050565b7f4e487b71000000000000000000000000000000000000000000000000000000005f52603260045260245ffd5b7f4e487b71000000000000000000000000000000000000000000000000000000005f52602260045260245ffd5b5f60028204905060018216806107d557607f821691505b6020821081036107e8576107e7610791565b5b50919050565b7f4e487b71000000000000000000000000000000000000000000000000000000005f52604160045260245ffd5b5f819050815f5260205f209050919050565b5f6020601f8301049050919050565b5f82821b905092915050565b5f600883026108777fffffffffffffffffffffffffffffffffffffffffffffffffffffffffffffffff8261083c565b610881868361083c565b95508019841693508086168417925050509392505050565b5f819050919050565b5f6108bc6108b76108b2846104cc565b610899565b6104cc565b9050919050565b5f819050919050565b6108d5836108a2565b6108e96108e1826108c3565b848454610848565b825550505050565b5f90565b6108fd6108f1565b6109088184846108cc565b505050565b5b8181101561092b576109205f826108f5565b60018101905061090e565b5050565b601f821115610970576109418161081b565b61094a8461082d565b81016020851015610959578190505b61096d6109658561082d565b83018261090d565b50505b505050565b5f82821c905092915050565b5f6109905f1984600802610975565b1980831691505092915050565b5f6109a88383610981565b9150826002028217905092915050565b6109c18261052a565b67ffffffffffffffff8111156109da576109d96107ee565b5b6109e482546107be565b6109ef82828561092f565b5f60209050601f831160018114610a20575f8415610a0e578287015190505b610a18858261099d565b865550610a7f565b601f198416610a2e8661081b565b5f5b82811015610a5557848901518255600182019150602085019450602081019050610a30565b86831015610a725784890151610a6e601f891682610981565b8355505b6001600288020188555050505b50505050505056fea2646970667358221220c7c2305ff86b93e83ef10d3ff8c713e731c3724bcaba45a9e917f29b29cde0ee64736f6c63430008160033",
					"opcodes": "PUSH1 0x80 PUSH1 0x40 MSTORE CALLVALUE DUP1 ISZERO PUSH2 0xF JUMPI PUSH0 DUP1 REVERT JUMPDEST POP PUSH2 0xABD DUP1 PUSH2 0x1D PUSH0 CODECOPY PUSH0 RETURN INVALID PUSH1 0x80 PUSH1 0x40 MSTORE CALLVALUE DUP1 ISZERO PUSH2 0xF JUMPI PUSH0 DUP1 REVERT JUMPDEST POP PUSH1 0x4 CALLDATASIZE LT PUSH2 0x55 JUMPI PUSH0 CALLDATALOAD PUSH1 0xE0 SHR DUP1 PUSH4 0x1D65E77E EQ PUSH2 0x59 JUMPI DUP1 PUSH4 0x387008C2 EQ PUSH2 0x89 JUMPI DUP1 PUSH4 0x560F3192 EQ PUSH2 0xA5 JUMPI DUP1 PUSH4 0x67238562 EQ PUSH2 0xC1 JUMPI DUP1 PUSH4 0xC17A340E EQ PUSH2 0xDD JUMPI JUMPDEST PUSH0 DUP1 REVERT JUMPDEST PUSH2 0x73 PUSH1 0x4 DUP1 CALLDATASIZE SUB DUP2 ADD SWAP1 PUSH2 0x6E SWAP2 SWAP1 PUSH2 0x4FF JUMP JUMPDEST PUSH2 0xFB JUMP JUMPDEST PUSH1 0x40 MLOAD PUSH2 0x80 SWAP2 SWAP1 PUSH2 0x608 JUMP JUMPDEST PUSH1 0x40 MLOAD DUP1 SWAP2 SUB SWAP1 RETURN JUMPDEST PUSH2 0xA3 PUSH1 0x4 DUP1 CALLDATASIZE SUB DUP2 ADD SWAP1 PUSH2 0x9E SWAP2 SWAP1 PUSH2 0x652 JUMP JUMPDEST PUSH2 0x21D JUMP JUMPDEST STOP JUMPDEST PUSH2 0xBF PUSH1 0x4 DUP1 CALLDATASIZE SUB DUP2 ADD SWAP1 PUSH2 0xBA SWAP2 SWAP1 PUSH2 0x4FF JUMP JUMPDEST PUSH2 0x295 JUMP JUMPDEST STOP JUMPDEST PUSH2 0xDB PUSH1 0x4 DUP1 CALLDATASIZE SUB DUP2 ADD SWAP1 PUSH2 0xD6 SWAP2 SWAP1 PUSH2 0x6F1 JUMP JUMPDEST PUSH2 0x316 JUMP JUMPDEST STOP JUMPDEST PUSH2 0xE5 PUSH2 0x40B JUMP JUMPDEST PUSH1 0x40 MLOAD PUSH2 0xF2 SWAP2 SWAP1 PUSH2 0x74B JUMP JUMPDEST PUSH1 0x40 MLOAD DUP1 SWAP2 SUB SWAP1 RETURN JUMPDEST PUSH2 0x103 PUSH2 0x451 JUMP JUMPDEST PUSH0 DUP1 PUSH0 CALLER PUSH20 0xFFFFFFFFFFFFFFFFFFFFFFFFFFFFFFFFFFFFFFFF AND PUSH20 0xFFFFFFFFFFFFFFFFFFFFFFFFFFFFFFFFFFFFFFFF AND DUP2 MSTORE PUSH1 0x20 ADD SWAP1 DUP2 MSTORE PUSH1 0x20 ADD PUSH0 KECCAK256 DUP4 DUP2 SLOAD DUP2 LT PUSH2 0x152 JUMPI PUSH2 0x151 PUSH2 0x764 JUMP JUMPDEST JUMPDEST SWAP1 PUSH0 MSTORE PUSH1 0x20 PUSH0 KECCAK256 SWAP1 PUSH1 0x2 MUL ADD SWAP1 POP DUP1 PUSH1 0x40 MLOAD DUP1 PUSH1 0x40 ADD PUSH1 0x40 MSTORE SWAP1 DUP2 PUSH0 DUP3 ADD DUP1 SLOAD PUSH2 0x17B SWAP1 PUSH2 0x7BE JUMP JUMPDEST DUP1 PUSH1 0x1F ADD PUSH1 0x20 DUP1 SWAP2 DIV MUL PUSH1 0x20 ADD PUSH1 0x40 MLOAD SWAP1 DUP2 ADD PUSH1 0x40 MSTORE DUP1 SWAP3 SWAP2 SWAP1 DUP2 DUP2 MSTORE PUSH1 0x20 ADD DUP3 DUP1 SLOAD PUSH2 0x1A7 SWAP1 PUSH2 0x7BE JUMP JUMPDEST DUP1 ISZERO PUSH2 0x1F2 JUMPI DUP1 PUSH1 0x1F LT PUSH2 0x1C9 JUMPI PUSH2 0x100 DUP1 DUP4 SLOAD DIV MUL DUP4 MSTORE SWAP2 PUSH1 0x20 ADD SWAP2 PUSH2 0x1F2 JUMP JUMPDEST DUP3 ADD SWAP2 SWAP1 PUSH0 MSTORE PUSH1 0x20 PUSH0 KECCAK256 SWAP1 JUMPDEST DUP2 SLOAD DUP2 MSTORE SWAP1 PUSH1 0x1 ADD SWAP1 PUSH1 0x20 ADD DUP1 DUP4 GT PUSH2 0x1D5 JUMPI DUP3 SWAP1 SUB PUSH1 0x1F AND DUP3 ADD SWAP2 JUMPDEST POP POP POP POP POP DUP2 MSTORE PUSH1 0x20 ADD PUSH1 0x1 DUP3 ADD PUSH0 SWAP1 SLOAD SWAP1 PUSH2 0x100 EXP SWAP1 DIV PUSH1 0xFF AND ISZERO ISZERO ISZERO ISZERO DUP2 MSTORE POP POP SWAP2 POP POP SWAP2 SWAP1 POP JUMP JUMPDEST DUP1 PUSH0 DUP1 CALLER PUSH20 0xFFFFFFFFFFFFFFFFFFFFFFFFFFFFFFFFFFFFFFFF AND PUSH20 0xFFFFFFFFFFFFFFFFFFFFFFFFFFFFFFFFFFFFFFFF AND DUP2 MSTORE PUSH1 0x20 ADD SWAP1 DUP2 MSTORE PUSH1 0x20 ADD PUSH0 KECCAK256 DUP4 DUP2 SLOAD DUP2 LT PUSH2 0x26C JUMPI PUSH2 0x26B PUSH2 0x764 JUMP JUMPDEST JUMPDEST SWAP1 PUSH0 MSTORE PUSH1 0x20 PUSH0 KECCAK256 SWAP1 PUSH1 0x2 MUL ADD PUSH1 0x1 ADD PUSH0 PUSH2 0x100 EXP DUP2 SLOAD DUP2 PUSH1 0xFF MUL NOT AND SWAP1 DUP4 ISZERO ISZERO MUL OR SWAP1 SSTORE POP POP POP JUMP JUMPDEST PUSH0 DUP1 CALLER PUSH20 0xFFFFFFFFFFFFFFFFFFFFFFFFFFFFFFFFFFFFFFFF AND PUSH20 0xFFFFFFFFFFFFFFFFFFFFFFFFFFFFFFFFFFFFFFFF AND DUP2 MSTORE PUSH1 0x20 ADD SWAP1 DUP2 MSTORE PUSH1 0x20 ADD PUSH0 KECCAK256 DUP2 DUP2 SLOAD DUP2 LT PUSH2 0x2E3 JUMPI PUSH2 0x2E2 PUSH2 0x764 JUMP JUMPDEST JUMPDEST SWAP1 PUSH0 MSTORE PUSH1 0x20 PUSH0 KECCAK256 SWAP1 PUSH1 0x2 MUL ADD PUSH0 DUP1 DUP3 ADD PUSH0 PUSH2 0x2FE SWAP2 SWAP1 PUSH2 0x46C JUMP JUMPDEST PUSH1 0x1 DUP3 ADD PUSH0 PUSH2 0x100 EXP DUP2 SLOAD SWAP1 PUSH1 0xFF MUL NOT AND SWAP1 SSTORE POP POP POP JUMP JUMPDEST PUSH0 DUP1 CALLER PUSH20 0xFFFFFFFFFFFFFFFFFFFFFFFFFFFFFFFFFFFFFFFF AND PUSH20 0xFFFFFFFFFFFFFFFFFFFFFFFFFFFFFFFFFFFFFFFF AND DUP2 MSTORE PUSH1 0x20 ADD SWAP1 DUP2 MSTORE PUSH1 0x20 ADD PUSH0 KECCAK256 PUSH1 0x40 MLOAD DUP1 PUSH1 0x40 ADD PUSH1 0x40 MSTORE DUP1 DUP5 DUP5 DUP1 DUP1 PUSH1 0x1F ADD PUSH1 0x20 DUP1 SWAP2 DIV MUL PUSH1 0x20 ADD PUSH1 0x40 MLOAD SWAP1 DUP2 ADD PUSH1 0x40 MSTORE DUP1 SWAP4 SWAP3 SWAP2 SWAP1 DUP2 DUP2 MSTORE PUSH1 0x20 ADD DUP4 DUP4 DUP1 DUP3 DUP5 CALLDATACOPY PUSH0 DUP2 DUP5 ADD MSTORE PUSH1 0x1F NOT PUSH1 0x1F DUP3 ADD AND SWAP1 POP DUP1 DUP4 ADD SWAP3 POP POP POP POP POP POP POP DUP2 MSTORE PUSH1 0x20 ADD PUSH0 ISZERO ISZERO DUP2 MSTORE POP SWAP1 DUP1 PUSH1 0x1 DUP2 SLOAD ADD DUP1 DUP3 SSTORE DUP1 SWAP2 POP POP PUSH1 0x1 SWAP1 SUB SWAP1 PUSH0 MSTORE PUSH1 0x20 PUSH0 KECCAK256 SWAP1 PUSH1 0x2 MUL ADD PUSH0 SWAP1 SWAP2 SWAP1 SWAP2 SWAP1 SWAP2 POP PUSH0 DUP3 ADD MLOAD DUP2 PUSH0 ADD SWAP1 DUP2 PUSH2 0x3E5 SWAP2 SWAP1 PUSH2 0x9B8 JUMP JUMPDEST POP PUSH1 0x20 DUP3 ADD MLOAD DUP2 PUSH1 0x1 ADD PUSH0 PUSH2 0x100 EXP DUP2 SLOAD DUP2 PUSH1 0xFF MUL NOT AND SWAP1 DUP4 ISZERO ISZERO MUL OR SWAP1 SSTORE POP POP POP POP POP JUMP JUMPDEST PUSH0 DUP1 PUSH0 CALLER PUSH20 0xFFFFFFFFFFFFFFFFFFFFFFFFFFFFFFFFFFFFFFFF AND PUSH20 0xFFFFFFFFFFFFFFFFFFFFFFFFFFFFFFFFFFFFFFFF AND DUP2 MSTORE PUSH1 0x20 ADD SWAP1 DUP2 MSTORE PUSH1 0x20 ADD PUSH0 KECCAK256 DUP1 SLOAD SWAP1 POP SWAP1 POP SWAP1 JUMP JUMPDEST PUSH1 0x40 MLOAD DUP1 PUSH1 0x40 ADD PUSH1 0x40 MSTORE DUP1 PUSH1 0x60 DUP2 MSTORE PUSH1 0x20 ADD PUSH0 ISZERO ISZERO DUP2 MSTORE POP SWAP1 JUMP JUMPDEST POP DUP1 SLOAD PUSH2 0x478 SWAP1 PUSH2 0x7BE JUMP JUMPDEST PUSH0 DUP3 SSTORE DUP1 PUSH1 0x1F LT PUSH2 0x489 JUMPI POP PUSH2 0x4A6 JUMP JUMPDEST PUSH1 0x1F ADD PUSH1 0x20 SWAP1 DIV SWAP1 PUSH0 MSTORE PUSH1 0x20 PUSH0 KECCAK256 SWAP1 DUP2 ADD SWAP1 PUSH2 0x4A5 SWAP2 SWAP1 PUSH2 0x4A9 JUMP JUMPDEST JUMPDEST POP JUMP JUMPDEST JUMPDEST DUP1 DUP3 GT ISZERO PUSH2 0x4C0 JUMPI PUSH0 DUP2 PUSH0 SWAP1 SSTORE POP PUSH1 0x1 ADD PUSH2 0x4AA JUMP JUMPDEST POP SWAP1 JUMP JUMPDEST PUSH0 DUP1 REVERT JUMPDEST PUSH0 DUP1 REVERT JUMPDEST PUSH0 DUP2 SWAP1 POP SWAP2 SWAP1 POP JUMP JUMPDEST PUSH2 0x4DE DUP2 PUSH2 0x4CC JUMP JUMPDEST DUP2 EQ PUSH2 0x4E8 JUMPI PUSH0 DUP1 REVERT JUMPDEST POP JUMP JUMPDEST PUSH0 DUP2 CALLDATALOAD SWAP1 POP PUSH2 0x4F9 DUP2 PUSH2 0x4D5 JUMP JUMPDEST SWAP3 SWAP2 POP POP JUMP JUMPDEST PUSH0 PUSH1 0x20 DUP3 DUP5 SUB SLT ISZERO PUSH2 0x514 JUMPI PUSH2 0x513 PUSH2 0x4C4 JUMP JUMPDEST JUMPDEST PUSH0 PUSH2 0x521 DUP5 DUP3 DUP6 ADD PUSH2 0x4EB JUMP JUMPDEST SWAP2 POP POP SWAP3 SWAP2 POP POP JUMP JUMPDEST PUSH0 DUP2 MLOAD SWAP1 POP SWAP2 SWAP1 POP JUMP JUMPDEST PUSH0 DUP3 DUP3 MSTORE PUSH1 0x20 DUP3 ADD SWAP1 POP SWAP3 SWAP2 POP POP JUMP JUMPDEST PUSH0 JUMPDEST DUP4 DUP2 LT ISZERO PUSH2 0x561 JUMPI DUP1 DUP3 ADD MLOAD DUP2 DUP5 ADD MSTORE PUSH1 0x20 DUP2 ADD SWAP1 POP PUSH2 0x546 JUMP JUMPDEST PUSH0 DUP5 DUP5 ADD MSTORE POP POP POP POP JUMP JUMPDEST PUSH0 PUSH1 0x1F NOT PUSH1 0x1F DUP4 ADD AND SWAP1 POP SWAP2 SWAP1 POP JUMP JUMPDEST PUSH0 PUSH2 0x586 DUP3 PUSH2 0x52A JUMP JUMPDEST PUSH2 0x590 DUP2 DUP6 PUSH2 0x534 JUMP JUMPDEST SWAP4 POP PUSH2 0x5A0 DUP2 DUP6 PUSH1 0x20 DUP7 ADD PUSH2 0x544 JUMP JUMPDEST PUSH2 0x5A9 DUP2 PUSH2 0x56C JUMP JUMPDEST DUP5 ADD SWAP2 POP POP SWAP3 SWAP2 POP POP JUMP JUMPDEST PUSH0 DUP2 ISZERO ISZERO SWAP1 POP SWAP2 SWAP1 POP JUMP JUMPDEST PUSH2 0x5C8 DUP2 PUSH2 0x5B4 JUMP JUMPDEST DUP3 MSTORE POP POP JUMP JUMPDEST PUSH0 PUSH1 0x40 DUP4 ADD PUSH0 DUP4 ADD MLOAD DUP5 DUP3 SUB PUSH0 DUP7 ADD MSTORE PUSH2 0x5E8 DUP3 DUP3 PUSH2 0x57C JUMP JUMPDEST SWAP2 POP POP PUSH1 0x20 DUP4 ADD MLOAD PUSH2 0x5FD PUSH1 0x20 DUP7 ADD DUP3 PUSH2 0x5BF JUMP JUMPDEST POP DUP1 SWAP2 POP POP SWAP3 SWAP2 POP POP JUMP JUMPDEST PUSH0 PUSH1 0x20 DUP3 ADD SWAP1 POP DUP2 DUP2 SUB PUSH0 DUP4 ADD MSTORE PUSH2 0x620 DUP2 DUP5 PUSH2 0x5CE JUMP JUMPDEST SWAP1 POP SWAP3 SWAP2 POP POP JUMP JUMPDEST PUSH2 0x631 DUP2 PUSH2 0x5B4 JUMP JUMPDEST DUP2 EQ PUSH2 0x63B JUMPI PUSH0 DUP1 REVERT JUMPDEST POP JUMP JUMPDEST PUSH0 DUP2 CALLDATALOAD SWAP1 POP PUSH2 0x64C DUP2 PUSH2 0x628 JUMP JUMPDEST SWAP3 SWAP2 POP POP JUMP JUMPDEST PUSH0 DUP1 PUSH1 0x40 DUP4 DUP6 SUB SLT ISZERO PUSH2 0x668 JUMPI PUSH2 0x667 PUSH2 0x4C4 JUMP JUMPDEST JUMPDEST PUSH0 PUSH2 0x675 DUP6 DUP3 DUP7 ADD PUSH2 0x4EB JUMP JUMPDEST SWAP3 POP POP PUSH1 0x20 PUSH2 0x686 DUP6 DUP3 DUP7 ADD PUSH2 0x63E JUMP JUMPDEST SWAP2 POP POP SWAP3 POP SWAP3 SWAP1 POP JUMP JUMPDEST PUSH0 DUP1 REVERT JUMPDEST PUSH0 DUP1 REVERT JUMPDEST PUSH0 DUP1 REVERT JUMPDEST PUSH0 DUP1 DUP4 PUSH1 0x1F DUP5 ADD SLT PUSH2 0x6B1 JUMPI PUSH2 0x6B0 PUSH2 0x690 JUMP JUMPDEST JUMPDEST DUP3 CALLDATALOAD SWAP1 POP PUSH8 0xFFFFFFFFFFFFFFFF DUP2 GT ISZERO PUSH2 0x6CE JUMPI PUSH2 0x6CD PUSH2 0x694 JUMP JUMPDEST JUMPDEST PUSH1 0x20 DUP4 ADD SWAP2 POP DUP4 PUSH1 0x1 DUP3 MUL DUP4 ADD GT ISZERO PUSH2 0x6EA JUMPI PUSH2 0x6E9 PUSH2 0x698 JUMP JUMPDEST JUMPDEST SWAP3 POP SWAP3 SWAP1 POP JUMP JUMPDEST PUSH0 DUP1 PUSH1 0x20 DUP4 DUP6 SUB SLT ISZERO PUSH2 0x707 JUMPI PUSH2 0x706 PUSH2 0x4C4 JUMP JUMPDEST JUMPDEST PUSH0 DUP4 ADD CALLDATALOAD PUSH8 0xFFFFFFFFFFFFFFFF DUP2 GT ISZERO PUSH2 0x724 JUMPI PUSH2 0x723 PUSH2 0x4C8 JUMP JUMPDEST JUMPDEST PUSH2 0x730 DUP6 DUP3 DUP7 ADD PUSH2 0x69C JUMP JUMPDEST SWAP3 POP SWAP3 POP POP SWAP3 POP SWAP3 SWAP1 POP JUMP JUMPDEST PUSH2 0x745 DUP2 PUSH2 0x4CC JUMP JUMPDEST DUP3 MSTORE POP POP JUMP JUMPDEST PUSH0 PUSH1 0x20 DUP3 ADD SWAP1 POP PUSH2 0x75E PUSH0 DUP4 ADD DUP5 PUSH2 0x73C JUMP JUMPDEST SWAP3 SWAP2 POP POP JUMP JUMPDEST PUSH32 0x4E487B7100000000000000000000000000000000000000000000000000000000 PUSH0 MSTORE PUSH1 0x32 PUSH1 0x4 MSTORE PUSH1 0x24 PUSH0 REVERT JUMPDEST PUSH32 0x4E487B7100000000000000000000000000000000000000000000000000000000 PUSH0 MSTORE PUSH1 0x22 PUSH1 0x4 MSTORE PUSH1 0x24 PUSH0 REVERT JUMPDEST PUSH0 PUSH1 0x2 DUP3 DIV SWAP1 POP PUSH1 0x1 DUP3 AND DUP1 PUSH2 0x7D5 JUMPI PUSH1 0x7F DUP3 AND SWAP2 POP JUMPDEST PUSH1 0x20 DUP3 LT DUP2 SUB PUSH2 0x7E8 JUMPI PUSH2 0x7E7 PUSH2 0x791 JUMP JUMPDEST JUMPDEST POP SWAP2 SWAP1 POP JUMP JUMPDEST PUSH32 0x4E487B7100000000000000000000000000000000000000000000000000000000 PUSH0 MSTORE PUSH1 0x41 PUSH1 0x4 MSTORE PUSH1 0x24 PUSH0 REVERT JUMPDEST PUSH0 DUP2 SWAP1 POP DUP2 PUSH0 MSTORE PUSH1 0x20 PUSH0 KECCAK256 SWAP1 POP SWAP2 SWAP1 POP JUMP JUMPDEST PUSH0 PUSH1 0x20 PUSH1 0x1F DUP4 ADD DIV SWAP1 POP SWAP2 SWAP1 POP JUMP JUMPDEST PUSH0 DUP3 DUP3 SHL SWAP1 POP SWAP3 SWAP2 POP POP JUMP JUMPDEST PUSH0 PUSH1 0x8 DUP4 MUL PUSH2 0x877 PUSH32 0xFFFFFFFFFFFFFFFFFFFFFFFFFFFFFFFFFFFFFFFFFFFFFFFFFFFFFFFFFFFFFFFF DUP3 PUSH2 0x83C JUMP JUMPDEST PUSH2 0x881 DUP7 DUP4 PUSH2 0x83C JUMP JUMPDEST SWAP6 POP DUP1 NOT DUP5 AND SWAP4 POP DUP1 DUP7 AND DUP5 OR SWAP3 POP POP POP SWAP4 SWAP3 POP POP POP JUMP JUMPDEST PUSH0 DUP2 SWAP1 POP SWAP2 SWAP1 POP JUMP JUMPDEST PUSH0 PUSH2 0x8BC PUSH2 0x8B7 PUSH2 0x8B2 DUP5 PUSH2 0x4CC JUMP JUMPDEST PUSH2 0x899 JUMP JUMPDEST PUSH2 0x4CC JUMP JUMPDEST SWAP1 POP SWAP2 SWAP1 POP JUMP JUMPDEST PUSH0 DUP2 SWAP1 POP SWAP2 SWAP1 POP JUMP JUMPDEST PUSH2 0x8D5 DUP4 PUSH2 0x8A2 JUMP JUMPDEST PUSH2 0x8E9 PUSH2 0x8E1 DUP3 PUSH2 0x8C3 JUMP JUMPDEST DUP5 DUP5 SLOAD PUSH2 0x848 JUMP JUMPDEST DUP3 SSTORE POP POP POP POP JUMP JUMPDEST PUSH0 SWAP1 JUMP JUMPDEST PUSH2 0x8FD PUSH2 0x8F1 JUMP JUMPDEST PUSH2 0x908 DUP2 DUP5 DUP5 PUSH2 0x8CC JUMP JUMPDEST POP POP POP JUMP JUMPDEST JUMPDEST DUP2 DUP2 LT ISZERO PUSH2 0x92B JUMPI PUSH2 0x920 PUSH0 DUP3 PUSH2 0x8F5 JUMP JUMPDEST PUSH1 0x1 DUP2 ADD SWAP1 POP PUSH2 0x90E JUMP JUMPDEST POP POP JUMP JUMPDEST PUSH1 0x1F DUP3 GT ISZERO PUSH2 0x970 JUMPI PUSH2 0x941 DUP2 PUSH2 0x81B JUMP JUMPDEST PUSH2 0x94A DUP5 PUSH2 0x82D JUMP JUMPDEST DUP2 ADD PUSH1 0x20 DUP6 LT ISZERO PUSH2 0x959 JUMPI DUP2 SWAP1 POP JUMPDEST PUSH2 0x96D PUSH2 0x965 DUP6 PUSH2 0x82D JUMP JUMPDEST DUP4 ADD DUP3 PUSH2 0x90D JUMP JUMPDEST POP POP JUMPDEST POP POP POP JUMP JUMPDEST PUSH0 DUP3 DUP3 SHR SWAP1 POP SWAP3 SWAP2 POP POP JUMP JUMPDEST PUSH0 PUSH2 0x990 PUSH0 NOT DUP5 PUSH1 0x8 MUL PUSH2 0x975 JUMP JUMPDEST NOT DUP1 DUP4 AND SWAP2 POP POP SWAP3 SWAP2 POP POP JUMP JUMPDEST PUSH0 PUSH2 0x9A8 DUP4 DUP4 PUSH2 0x981 JUMP JUMPDEST SWAP2 POP DUP3 PUSH1 0x2 MUL DUP3 OR SWAP1 POP SWAP3 SWAP2 POP POP JUMP JUMPDEST PUSH2 0x9C1 DUP3 PUSH2 0x52A JUMP JUMPDEST PUSH8 0xFFFFFFFFFFFFFFFF DUP2 GT ISZERO PUSH2 0x9DA JUMPI PUSH2 0x9D9 PUSH2 0x7EE JUMP JUMPDEST JUMPDEST PUSH2 0x9E4 DUP3 SLOAD PUSH2 0x7BE JUMP JUMPDEST PUSH2 0x9EF DUP3 DUP3 DUP6 PUSH2 0x92F JUMP JUMPDEST PUSH0 PUSH1 0x20 SWAP1 POP PUSH1 0x1F DUP4 GT PUSH1 0x1 DUP2 EQ PUSH2 0xA20 JUMPI PUSH0 DUP5 ISZERO PUSH2 0xA0E JUMPI DUP3 DUP8 ADD MLOAD SWAP1 POP JUMPDEST PUSH2 0xA18 DUP6 DUP3 PUSH2 0x99D JUMP JUMPDEST DUP7 SSTORE POP PUSH2 0xA7F JUMP JUMPDEST PUSH1 0x1F NOT DUP5 AND PUSH2 0xA2E DUP7 PUSH2 0x81B JUMP JUMPDEST PUSH0 JUMPDEST DUP3 DUP2 LT ISZERO PUSH2 0xA55 JUMPI DUP5 DUP10 ADD MLOAD DUP3 SSTORE PUSH1 0x1 DUP3 ADD SWAP2 POP PUSH1 0x20 DUP6 ADD SWAP5 POP PUSH1 0x20 DUP2 ADD SWAP1 POP PUSH2 0xA30 JUMP JUMPDEST DUP7 DUP4 LT ISZERO PUSH2 0xA72 JUMPI DUP5 DUP10 ADD MLOAD PUSH2 0xA6E PUSH1 0x1F DUP10 AND DUP3 PUSH2 0x981 JUMP JUMPDEST DUP4 SSTORE POP JUMPDEST PUSH1 0x1 PUSH1 0x2 DUP9 MUL ADD DUP9 SSTORE POP POP POP JUMPDEST POP POP POP POP POP POP JUMP INVALID LOG2 PUSH5 0x6970667358 0x22 SLT KECCAK256 0xC7 0xC2 ADDRESS PUSH0 0xF8 PUSH12 0x93E83EF10D3FF8C713E731C3 PUSH19 0x4BCABA45A9E917F29B29CDE0EE64736F6C6343 STOP ADDMOD AND STOP CALLER "
				},
				"gasEstimates": {
					"creation": {
						"codeDepositCost": "549800",
						"executionCost": "579",
						"totalCost": "550379"
					},
					"external": {
						"addTask(string)": "infinite",
						"deleteTask(uint256)": "infinite",
						"getTask(uint256)": "infinite",
						"getTaskCount()": "2593",
						"updateStatus(uint256,bool)": "27126"
					}
				},
				"methodIdentifiers": {
					"addTask(string)": "67238562",
					"deleteTask(uint256)": "560f3192",
					"getTask(uint256)": "1d65e77e",
					"getTaskCount()": "c17a340e",
					"updateStatus(uint256,bool)": "387008c2"
				}
			},
			"storageLayout": {
				"storage": [
					{
						"astId": 12,
						"contract": "todo.sol:ToDo",
						"label": "Users",
						"offset": 0,
						"slot": "0",
						"type": "t_mapping(t_address,t_array(t_struct(Task)6_storage)dyn_storage)"
					}
				],
				"types": {
					"t_address": {
						"encoding": "inplace",
						"label": "address",
						"numberOfBytes": "20"
					},
					"t_array(t_struct(Task)6_storage)dyn_storage": {
						"base": "t_struct(Task)6_storage",
						"encoding": "dynamic_array",
						"label": "struct ToDo.Task[]",
						"numberOfBytes": "32"
					},
					"t_bool": {
						"encoding": "inplace",
						"label": "bool",
						"numberOfBytes": "1"
					},
					"t_mapping(t_address,t_array(t_struct(Task)6_storage)dyn_storage)": {
						"encoding": "mapping",
						"key": "t_address",
						"label": "mapping(address => struct ToDo.Task[])",
						"numberOfBytes": "32",
						"value": "t_array(t_struct(Task)6_storage)dyn_storage"
					},
					"t_string_storage": {
						"encoding": "bytes",
						"label": "string",
						"numberOfBytes": "32"
					},
					"t_struct(Task)6_storage": {
						"encoding": "inplace",
						"label": "struct ToDo.Task",
						"members": [
							{
								"astId": 3,
								"contract": "todo.sol:ToDo",
								"label": "task",
								"offset": 0,
								"slot": "0",
								"type": "t_string_storage"
							},
							{
								"astId": 5,
								"contract": "todo.sol:ToDo",
								"label": "done",
								"offset": 0,
								"slot": "1",
								"type": "t_bool"
							}
						],
						"numberOfBytes": "64"
					}
				}
			},
			"userdoc": {
				"kind": "user",
				"methods": {},
				"version": 1
			}
		}
	}
}